:020000040800F2
:100000000040002061420008DD3F0008DF3F00089B
:10001000E13F0008E33F0008E53F00080000000062
:10002000000000000000000000000000E73F0008A2
:10003000E93F000800000000EB3F0008ED3F00082A
:10004000A9420008A9420008A9420008A9420008E4
:10005000A9420008A9420008A9420008A9420008D4
:10006000A9420008A9420008A9420008A9420008C4
:10007000A9420008A9420008A94200080D40000852
:10008000A9420008A9420008A9420008A9420008A4
:10009000A9420008A9420008A9420008A942000894
:1000A000A9420008A9420008A9420008A942000884
:1000B000A9420008A9420008A9420008A942000874
:1000C000A9420008A9420008A9420008A942000864
:1000D000A9420008A9420008F53F0008A94200080B
:1000E000A9420008A9420008A9420008A942000844
:1000F000A94200080000000000000000000000000D
:1001000000000000000000000000000000000000EF
:1001100000000000000000000000000000000000DF
:1001200000000000000000000000000000000000CF
:0C01300000000000000000005FF808F173
:1001400010B5054C237833B9044B13B10448AFF311
:1001500000800123237010BD080A00200000000069
:10016000207B000808B5034B1BB103490348AFF3DC
:10017000008008BD000000000C0A0020207B000861
:1001800081F0004102E000BF83F0004330B54FEA48
:1001900041044FEA430594EA050F08BF90EA020FB5
:1001A0001FBF54EA000C55EA020C7FEA645C7FEA48
:1001B000655C00F0E2804FEA5454D4EB5555B8BF6B
:1001C0006D420CDD2C4480EA020281EA030382EADC
:1001D000000083EA010180EA020281EA0303362D6E
:1001E00088BF30BD11F0004F4FEA01314FF4801C41
:1001F0004CEA113102D0404261EB410113F0004F53
:100200004FEA03334CEA133302D0524263EB430309
:1002100094EA050F00F0A780A4F10104D5F1200EA7
:100220000DDB02FA0EFC22FA05F2801841F1000102
:1002300003FA0EF2801843FA05F359410EE0A5F1D6
:1002400020050EF1200E012A03FA0EFC28BF4CF007
:10025000020C43FA05F3C01851EBE37101F00045BD
:1002600007D54FF0000EDCF1000C7EEB00006EEBCA
:100270000101B1F5801F1BD3B1F5001F0CD3490854
:100280005FEA30004FEA3C0C04F101044FEA4452AB
:1002900012F5800F80F09A80BCF1004F08BF5FEA32
:1002A000500C50F1000041EB045141EA050130BD12
:1002B0005FEA4C0C404141EB010111F4801FA4F1B5
:1002C0000104E9D191F0000F04BF01460020B1FA0A
:1002D00081F308BF2033A3F10B03B3F120020CDA42
:1002E0000C3208DD02F1140CC2F10C0201FA0CF020
:1002F00021FA02F10CE002F11402D8BFC2F1200C85
:1003000001FA02F120FA0CFCDCBF41EA0C0190403A
:10031000E41AA2BF01EB0451294330BD6FEA040483
:100320001F3C1CDA0C340EDC04F11404C4F120026E
:1003300020FA04F001FA02F340EA030021FA04F380
:1003400045EA030130BDC4F10C04C4F1200220FAD7
:1003500002F001FA04F340EA0300294630BD21FA15
:1003600004F0294630BD94F0000F83F4801306BFDB
:1003700081F480110134013D4EE77FEA645C18BFCF
:100380007FEA655C29D094EA050F08BF90EA020F66
:1003900005D054EA000C04BF1946104630BD91EA5E
:1003A000030F1EBF0021002030BD5FEA545C05D161
:1003B0004000494128BF41F0004130BD14F58004A0
:1003C0003CBF01F5801130BD01F0004545F0FE4114
:1003D00041F470014FF0000030BD7FEA645C1ABF49
:1003E000194610467FEA655C1CBF0B46024650EA80
:1003F000013406BF52EA033591EA030F41F40021AC
:1004000030BD00BF90F0000F04BF0021704730B531
:100410004FF4806404F132044FF000054FF0000106
:1004200050E700BF90F0000F04BF0021704730B5C7
:100430004FF4806404F1320410F0004548BF40429C
:100440004FF000013EE700BF42004FEAE2014FEAF1
:1004500031014FEA02701FBF12F07F4393F07F4FCC
:1004600081F06051704732F07F4208BF704793F0CF
:100470007F4F04BF41F40021704730B54FF46074E2
:1004800001F0004521F000411CE700BF50EA0102E5
:1004900008BF704730B54FF000050AE050EA01028E
:1004A00008BF704730B511F0004502D5404261EBFE
:1004B00041014FF4806404F132045FEA915C3FF43F
:1004C000D8AE4FF003025FEADC0C18BF03325FEADC
:1004D000DC0C18BF033202EBDC02C2F1200300FA8D
:1004E00003FC20FA02F001FA03FE40EA0E0021FAB2
:1004F00002F11444BDE600BF70B54FF0FF0C4CF4A0
:10050000E06C1CEA11541DBF1CEA135594EA0C0F51
:1005100095EA0C0F00F0DEF82C4481EA030621EA8C
:100520004C5123EA4C5350EA013518BF52EA0335C7
:1005300041F4801143F4801338D0A0FB02CE4FF079
:100540000005E1FB02E506F00042E0FB03E54FF0A9
:100550000006E1FB03569CF0000F18BF4EF0010EA1
:10056000A4F1FF04B6F5007F64F5407404D25FEA9D
:100570004E0E6D4146EB060642EAC62141EA555150
:100580004FEAC52040EA5E504FEACE2EB4F1FD0C92
:1005900088BFBCF5E06F1ED8BEF1004F08BF5FEA10
:1005A000500E50F1000041EB045170BD06F00046C2
:1005B00046EA010140EA020081EA0301B4EB5C046F
:1005C000C2BFD4EB0C0541EA045170BD41F4801167
:1005D0004FF0000E013C00F3AB8014F1360FDEBF8C
:1005E000002001F0004170BDC4F10004203C35DA68
:1005F0000C341BDC04F11404C4F1200500FA05F3EB
:1006000020FA04F001FA05F240EA020001F000428B
:1006100021F0004110EBD37021FA04F642EB060101
:100620005EEA430E08BF20EAD37070BDC4F10C042B
:10063000C4F1200500FA04F320FA05F001FA04F2EF
:1006400040EA020001F0004110EBD37041F10001DB
:100650005EEA430E08BF20EAD37070BDC4F12005E6
:1006600000FA05F24EEA020E20FA04F301FA05F24E
:1006700043EA020321FA04F001F0004121FA04F2F6
:1006800020EA020000EBD3705EEA430E08BF20EAC6
:10069000D37070BD94F0000F0FD101F00046400000
:1006A00041EB010111F4801F08BF013CF7D041EA82
:1006B000060195F0000F18BF704703F00046520086
:1006C00043EB030313F4801F08BF013DF7D043EA57
:1006D0000603704794EA0C0F0CEA135518BF95EA0D
:1006E0000C0F0CD050EA410618BF52EA4306D1D194
:1006F00081EA030101F000414FF0000070BD50EAB3
:10070000410606BF1046194652EA430619D094EA3C
:100710000C0F02D150EA013613D195EA0C0F05D126
:1007200052EA03361CBF104619460AD181EA03017A
:1007300001F0004141F0FE4141F470014FF0000032
:1007400070BD41F0FE4141F4780170BD70B54FF0CD
:10075000FF0C4CF4E06C1CEA11541DBF1CEA13554D
:1007600094EA0C0F95EA0C0F00F0A7F8A4EB05042F
:1007700081EA030E52EA03354FEA013100F0888026
:100780004FEA03334FF0805545EA131343EA1263EF
:100790004FEA022245EA111545EA10654FEA0026A4
:1007A0000EF000419D4208BF964244F1FD0404F55D
:1007B000407402D25B084FEA3202B61A65EB0305B9
:1007C0005B084FEA32024FF480104FF4002CB6EB76
:1007D000020E75EB030E22BFB61A754640EA0C00F6
:1007E0005B084FEA3202B6EB020E75EB030E22BF36
:1007F000B61A754640EA5C005B084FEA3202B6EB77
:10080000020E75EB030E22BFB61A754640EA9C0035
:100810005B084FEA3202B6EB020E75EB030E22BF05
:10082000B61A754640EADC0055EA060E18D04FEAC3
:10083000051545EA16754FEA06164FEAC30343EA63
:1008400052734FEAC2025FEA1C1CC0D111F4801F30
:100850000BD141EA00014FF000004FF0004CB6E729
:1008600011F4801F04BF01430020B4F1FD0C88BFC8
:10087000BCF5E06F3FF6AFAEB5EB030C04BFB6EBD3
:10088000020C5FEA500C50F1000041EB045170BDC6
:100890000EF0004E4EEA113114EB5C04C2BFD4EBF3
:1008A0000C0541EA045170BD41F480114FF0000E77
:1008B000013C90E645EA060E8DE60CEA135594EAF3
:1008C0000C0F08BF95EA0C0F3FF43BAF94EA0C0FF6
:1008D0000AD150EA01347FF434AF95EA0C0F7FF46B
:1008E00025AF104619462CE795EA0C0F06D152EABF
:1008F00003353FF4FDAE1046194622E750EA4106A3
:1009000018BF52EA43067FF4C5AE50EA41047FF4B3
:100910000DAF52EA43057FF4EBAE12E74FF0FF3C18
:1009200006E000BF4FF0010C02E000BF4FF0010CE9
:100930004DF804CD4FEA410C7FEA6C5C4FEA430C62
:1009400018BF7FEA6C5C1BD001B050EA410C0CBFB1
:1009500052EA430C91EA030F02BF90EA020F002013
:10096000704710F1000F91EA030F58BF994208BF7A
:1009700090422CBFD8176FEAE37040F00100704737
:100980004FEA410C7FEA6C5C02D150EA013C07D18E
:100990004FEA430C7FEA6C5CD6D152EA033CD3D0D9
:1009A0005DF8040B704700BF8446104662468C46D3
:1009B0001946634600E000BF01B5FFF7B7FF002806
:1009C00048BF10F1000F01BD4DF808EDFFF7F4FF2F
:1009D0000CBF012000205DF808FB00BF4DF808EDBA
:1009E000FFF7EAFF34BF012000205DF808FB00BFDD
:1009F0004DF808EDFFF7E0FF94BF012000205DF8FF
:100A000008FB00BF4DF808EDFFF7CEFF94BF0120B3
:100A100000205DF808FB00BF4DF808EDFFF7C4FFAC
:100A200034BF012000205DF808FB00BF4FEA4102FF
:100A300012F5001215D211D56FF47873B3EB625230
:100A400012D94FEAC12343F0004343EA505311F057
:100A5000004F23FA02F018BF404270474FF00000E9
:100A6000704750EA013005D111F0004008BF6FF027
:100A7000004070474FF00000704700BF4A0011D29D
:100A800012F5001211D20DD56FF47873B3EB6252E8
:100A90000ED44FEAC12343F0004343EA505323FAF4
:100AA00002F070474FF00000704750EA013002D169
:100AB0004FF0FF3070474FF0000070474FEA4002A0
:100AC000B2F1FE4F0FD34FF09E03B3EB12620DD97C
:100AD0004FEA002343F0004310F0004F23FA02F0E6
:100AE00018BF404270474FF00000704712F1610F8D
:100AF00001D1420205D110F0004008BF6FF0004064
:100B000070474FF00000704742000ED2B2F1FE4F26
:100B10000BD34FF09E03B3EB126209D44FEA0023CC
:100B200043F0004323FA02F070474FF00000704793
:100B300012F1610F01D1420202D14FF0FF30704734
:100B40004FF00000704700BF034613F8012B002A46
:100B5000FBD1181A013870474FEA410C7FEA6C5CF0
:100B600002D150EA013C0AD14FEA430C7FEA6C5CA7
:100B700002D152EA033C02D14FF0000070474FF01F
:100B8000010070474FEA4102B2F1E04324BFB3F5E0
:100B9000001CDCF1FE5C0DD901F0004C4FEAC002F4
:100BA0004CEA5070B2F1004F40EB830008BF20F0D8
:100BB0000100704711F0804F21D113F13872BCBF92
:100BC00001F00040704741F480114FEA5252C2F1E7
:100BD0001802C2F1200C10FA0CF320FA02F018BF30
:100BE00040F001004FEAC1234FEAD32303FA0CFC83
:100BF00040EA0C0023FA02F34FEA4303CCE77FEA12
:100C0000625307D150EA01331EBF4FF0FE4040F45B
:100C10004000704701F0004040F0FE4040F400000A
:100C2000704700BF4FF0FF3C06E000BF4FF0010CE3
:100C300002E000BF4FF0010C4DF804CD4FEA400236
:100C40004FEA41037FEA226C18BF7FEA236C11D080
:100C500001B052EA530C18BF90EA010F58BFB2EB33
:100C6000030088BFC81738BF6FEAE17018BF40F0B3
:100C7000010070477FEA226C02D15FEA402C05D167
:100C80007FEA236CE4D15FEA412CE1D05DF8040BEC
:100C9000704700BF844608466146FFE70FB5FFF77F
:100CA000C9FF002848BF10F1000F0FBD4DF808ED37
:100CB000FFF7F4FF0CBF012000205DF808FB00BF28
:100CC0004DF808EDFFF7EAFF34BF012000205DF882
:100CD00008FB00BF4DF808EDFFF7E0FF94BF0120CF
:100CE00000205DF808FB00BF4DF808EDFFF7D2FFCC
:100CF00094BF012000205DF808FB00BF4DF808ED0F
:100D0000FFF7C8FF34BF012000205DF808FB00BFDB
:100D10004FEA40024FEA41037FEA226C02D15FEAC8
:100D2000402C08D17FEA236C02D15FEA412C02D12A
:100D30004FF0000070474FF001007047104B1B68E8
:100D40000BB90120704710B504464FF47A70B0FB20
:100D5000F3F30C4A1068B0FBF3F000F09FF868B9A9
:100D60000F2C01D901200AE0002221464FF0FF306C
:100D700000F052F8024B5C60002000E0012010BD42
:100D8000000000201C00002010B5032000F032F805
:100D90000020FFF7D3FF10B10124204610BD044608
:100DA00002F0E6FFF9E70000034A13680349096807
:100DB0000B441360704700BFD01A002000000020D1
:100DC000014B1868704700BFD01A002038B50446A0
:100DD000FFF7F6FF0546B4F1FF3F02D0044B1B6856
:100DE0001C44FFF7EDFF401BA042FAD338BD00BF03
:100DF00000000020074AD36823F4E0631B041B0CA7
:100E0000000200F4E060184340F0BF6040F400309E
:100E1000D060704700ED00E030B4174BDB68C3F3DF
:100E20000223C3F10704042C28BF04241D1D062D32
:100E300018D9033B4FF0FF3505FA04F421EA040109
:100E4000994005FA03F322EA0303194300280BDB58
:100E50000901C9B200F1604000F5614080F800135B
:100E600030BC70470023E5E700F00F000901C9B26C
:100E7000024B1954F4E700BF00ED00E014ED00E070
:100E8000002807DB00F01F02400901239340024ABB
:100E900042F82030704700BF00E100E00138B0F1B7
:100EA000807F0AD2064B5860064AF02182F8231050
:100EB0000020986007221A6070470120704700BF29
:100EC00010E000E000ED00E060B310B402460168FD
:100ED000154B0B441548A0FB03031B099B0013642F
:100EE000134BD363022382F82130086820F4FF40BB
:100EF00020F07000536894682343D4682343146936
:100F000023435469234394692343D469234303430C
:100F10000B6000209063012382F8213082F82000CA
:100F200010BC704701207047F89FFDBFCDCCCCCCE2
:100F30000060024008B590F82130DBB2022B03D0EC
:100F400004238363012008BD0268136823F00E03A5
:100F500013600268136823F001031360036C03F04D
:100F60001C03C16B012202FA03F34B6080F82120BD
:100F7000002380F82030436B13B198470020E2E74C
:100F80000020E0E738B5C36B196804682568036C76
:100F900003F01C0304229A400A4215D015F0040FF6
:100FA00012D0236813F0200F03D1236823F0040329
:100FB0002360036C03F01C02C16B042393404B605D
:100FC000C36A03B1984738BD02229A400A421CD036
:100FD00015F0020F19D0236813F0200F06D12368F3
:100FE00023F00A032360012380F82130036C03F00F
:100FF0001C02C16B022393404B60002380F8203019
:10100000836A002BDFD09847DDE7082202FA03F35A
:101010000B42D8D015F0080FD5D0236823F00E036B
:101020002360036C03F01C03C16B012202FA03F37B
:101030004B60826380F82120002380F82030036B0E
:10104000002BC0D09847BEE7F0B482B0002336E052
:10105000042400E00024B4403C4302355B4E46F8D3
:1010600025405B4C2568D44304EA05064F6817F415
:10107000803F01D042EA0506554D2E606D6804EAB6
:1010800005064F6817F4003F01D042EA0506504DAF
:101090006E60AD6804EA05064F6817F4801F01D042
:1010A00042EA05064A4DAE60ED682C404E6816F4E3
:1010B000001F01D042EA0504454AD46001330A68A2
:1010C00032FA03F47FD001249C402240F6D04D68D0
:1010D000022D01D0122D10D1DE08083650F826C09E
:1010E00003F00705AF000F25BD402CEA050C0D6984
:1010F000BD4045EA0C0540F8265006685F00032510
:10110000BD40ED4305EA060C4E6806F00306BE40FE
:1011100046EA0C0606604E6806F1FF3CBCF1010F82
:1011200003D9112E01D0122E10D1866805EA060CC3
:10113000CE68BE4046EA0C068660466826EA04048D
:101140004E68C6F300169E4026434660C46825409C
:101150008C68BC402C43C4604C6814F0805FADD0F8
:101160001C4C256A45F001052562246A04F001043F
:101170000194019C9D08AE1C144C54F8267003F099
:101180000304A6000F24B44027EA0407124CA0422F
:101190003FF460AF04F58064A0420ED004F5806493
:1011A000A0420CD004F58064A0420AD004F580640B
:1011B000A0423FF44DAF05244DE701244BE7022444
:1011C00049E7032447E702B0F0BC70470000014044
:1011D00000040140003802400000024012B9090436
:1011E000816170478161704703685A6912F4806FAA
:1011F00011D06FF480625A6100230363202280F8CB
:101200003D2080F83E30026C42F00402026480F817
:101210003C300120704700207047F8B506460C4668
:1012200017461D4622E0FFF7CBFD069BC01AA842D9
:1012300000D8DDB900233363202286F83D2086F8EC
:101240003E30326C42F02002326486F83C3001209D
:101250001AE033685B6924EA03039BB2B3FA83F3B1
:101260005B099F420FD1B5F1FF3FDCD1C4F30743C7
:10127000012BEED033689B6924EA03039BB2B3FAD7
:1012800083F35B09EDE70020F8BD70B504460D4619
:10129000164623685B6913F0800F1CD12046FFF7C8
:1012A000A3FFD0B9B5F1FF3FF3D0FFF789FD801B55
:1012B000A84201D8002DECD100232363202284F81A
:1012C0003D2084F83E30226C42F02002226484F8F3
:1012D0003C30012000E0002070BD0120FCE7000050
:1012E000002800F0BE80F8B5044690F83D30002B91
:1012F0006BD0242384F83D302268136823F0010367
:10130000136000F07DFD6268584B9A4262D8584BDA
:1013100098428CBF00230123002B40F0A480554B42
:10132000A3FB00239B0C21684A6822F03F021A436A
:101330004A6025682A6A22F03F0266684B498E425D
:101340004ED8013313432B622568E96921F44F41DC
:1013500021F0FF016368454A93424BD801385B0096
:10136000B0FBF3F30133C3F30B03042B38BF0423A7
:101370000B43EB6121680B6823F0C003E269206A2C
:10138000024313430B6021688B6823F4034323F06B
:10139000FF032269E068024313438B602168CB6836
:1013A00023F0FF036269A06902431343CB60226804
:1013B000136843F00103136000202064202384F8A5
:1013C0003D30206384F83E00F8BD80F83C3002F0E8
:1013D000F5FC8EE7284B98428CBF002301239BE746
:1013E0004FF4967101FB03F32449A1FB03139B09FE
:1013F0000133A7E7A268BAB9461E03EB4307B6FB61
:10140000F7F60136C6F30B06B6FA86F6760936BB52
:10141000C2B9013803EB4303B0FBF3F30133C3F369
:101420000B0242F40043A3E7461E03EB830707EBDE
:101430008707B6FBF7F60136C6F30B06B6FA86F653
:101440007609E4E7013803EB830303EB8303B0FB86
:10145000F3F20132C2F30B0242F4404388E7012366
:1014600086E7012070470120AEE700BFA08601009B
:101470007F841E0083DE1B43FF083D00D34D6210B6
:101480002DE9F04184B004460F4690461D46FFF713
:1014900097FC94F83D30DBB2202B40F0A880064644
:1014A000002F00F0A980B8F1000F00F0A78094F899
:1014B0003C30012B00F0A480012384F83C302368E9
:1014C0001A6812F0010F03D11A6842F001021A6083
:1014D0002268136823F400631360212384F83D30ED
:1014E000202384F83E30002222646762A4F82A8018
:1014F000638D2385464BE36221680B6843F4806368
:101500000B6000962B4643492046FFF786FE0028D5
:1015100078D10023029323685A6902929B6902934F
:10152000029B2369B3F5404F2CD0238D002B42D072
:10153000324629462046FFF7A8FE002834D1626AC9
:10154000236812781A61616A4B1C6362638D013BE8
:101550009BB26385238D013B9BB223852268506932
:1015600010F0040FE1D0002BDFD04B781361636AD9
:1015700001336362638D013B9BB26385238D013B25
:101580002385D2E700962B46002222492046FFF70A
:1015900044FE002838D10023039323685A6903923C
:1015A0009B690393039BC0E72268136823F480635D
:1015B000136001231CE000962B4600224FF4823179
:1015C0002046FFF72AFE034600BB22686FF48061C5
:1015D000516121680A6822F480620A60202284F83E
:1015E0003D20002284F83E2084F83C2000E00223C5
:1015F000184604B0BDE8F0810123F9E70123F7E7BD
:101600000223F5E70123F3E70123F1E70123EFE7E5
:101610000000FFFF0200010082B0214B9B6813F025
:10162000F00F2CD11E4B5B6A13F0805F08D01D4B6E
:101630001B6803F4C053B3F5C05F14D000211FE052
:10164000174A536A43F080535362536A03F080533E
:101650000193019B134B1B6803F4C053516A21F0A3
:1016600080515162E7E7B0F5404F01D0002107E01B
:101670000D4A136843F004031360012100E00021C8
:10168000094A136823F001030B431360136803F046
:1016900001038B4202D0012002B070470020FBE71B
:1016A0000038024000700040003C0240002800F07A
:1016B0006082F0B583B00446A04B9D6805F00C0530
:1016C0009E6806F48036036813F0010F1DD0082DC4
:1016D00012D00C2D0ED06368012B35D0002B49D1D0
:1016E000964B1A6822F480321A601A6822F480221B
:1016F0001A602EE0002EEED0904B1B6813F4003FD2
:1017000003D06368002B00F03782236813F0020FC8
:1017100069D0042D55D00C2D51D0E368002B00F07A
:10172000AC80874B01221A60FFF74AFB0646834BC9
:101730001B6813F0020F40F09780FFF741FB801BFE
:101740000228F4D903231EE27C4A136843F4803351
:101750001360636823B3FFF733FB0746774B1B68BF
:1017600013F4003FD1D1FFF72BFBC01B6428F5D940
:10177000032308E2052B09D0704B1A6822F480324B
:101780001A601A6822F480221A60E2E76B4B1A682A
:1017900042F480221A601A6842F480321A60D8E754
:1017A000FFF70EFB0746654B1B6813F4003FACD0F8
:1017B000FFF706FBC01B6428F5D90323E3E1002EE5
:1017C000ABD15E4B1B6813F0020F04D0E368012B12
:1017D00001D00123D7E1594A536823F4F853216912
:1017E00043EA01235360236813F0100F00F08E804A
:1017F000002D68D1514B1B6813F4007F03D0A369FF
:10180000002B00F0BB81206A4C4B5B6803F4604303
:10181000984244D9FFF700FF002840F0B181474AC1
:10182000536823F46043216A0B435360536823F0E9
:101830007F43E16943EA01635360236A5B0B5A1CEF
:101840004FF4004393403D4A9268C2F303123D496E
:101850008A5CD3403C4A13603C4B1868FFF76EFA31
:101860000346002852D08EE1344A536823F4F853DB
:10187000216943EA01235360B5E7314B00221A6026
:10188000FFF79EFA06462D4B1B6813F0020FAAD0F5
:10189000FFF796FA801B0228F5D9032373E1274A44
:1018A000536823F4604318435060536823F07F4328
:1018B000E16943EA01635360206AFFF7ADFE002847
:1018C000BBD001235FE1A369002B45D0204B01224F
:1018D0001A60FFF775FA0646184B1B6813F4007F71
:1018E00006D1FFF76DFA801B0228F5D903234AE1E0
:1018F000124A536823F46043216A0B4353605368D0
:1019000023F07F43E16943EA01635360236813F0E6
:10191000080F45D063698BB30E4B01221A60FFF7A5
:101920004FFA0646054B5B6B13F0020F38D1FFF7F9
:1019300047FA801B0228F5D9032324E1003802402E
:1019400000004742B88100081C000020040000206D
:1019500020004742800647428E4B00221A60FFF764
:101960002FFA06468C4B1B6813F4007FCED0FFF78E
:1019700027FA801B0228F5D9032304E1874B0022B4
:101980001A60FFF71DFA0646834B5B6B13F0020FDC
:1019900006D0FFF715FA801B0228F5D90323F2E0E1
:1019A000236813F0040F79D07B4B5B6A13F0805FE0
:1019B0001ED1794B5A6A42F080525A625B6A03F038
:1019C00080530193019B0126754B1B6813F4807FA4
:1019D00010D0A368012B21D0002B37D16E4B5A6B4E
:1019E00022F480725A635A6B22F480625A631AE0BE
:1019F0000026E9E76A4A136843F480731360FFF72F
:101A0000DFF90746664B1B6813F4807FE1D1FFF7CF
:101A1000D7F9C01B6428F5D90323B4E05E4A536BA1
:101A200043F480735363A36833B3FFF7C9F90746E0
:101A3000594B5B6B13F4007F2FD1FFF7C1F9C01B2B
:101A400041F288339842F3D903239CE0052B09D057
:101A5000514B5A6B22F480725A635A6B22F48062A3
:101A60005A63E0E74C4B5A6B42F480625A635A6BFC
:101A700042F480725A63D6E7FFF7A2F90746464B55
:101A80005B6B13F4007F08D0FFF79AF9C01B41F29B
:101A900088339842F3D9032375E0C6B9636A002BF3
:101AA00070D00C2D4CD0022B17D03E4B00221A6068
:101AB000FFF786F90446384B1B6813F0007F3DD0D2
:101AC000FFF77EF9001B0228F5D903235BE0324AB9
:101AD000536A23F080535362E0E7324B00221A60CE
:101AE000FFF76EF905462C4B1B6813F0007F06D0FC
:101AF000FFF766F9401B0228F5D9032343E0264986
:101B00008B6823F47D03A26AE06A0243206B0243E0
:101B100013438B60234B01221A60FFF751F90446EF
:101B20001D4B1B6813F0007F06D1FFF749F9001B1E
:101B30000228F5D9032326E0002324E0002322E035
:101B4000012B23D0144B9B6803F48031A26A91428D
:101B500001D0012317E003F47012E16A8A4201D038
:101B6000012310E003F44003226B934210D00123C1
:101B700009E0012318467047012304E0012302E035
:101B8000012300E00023184603B0F0BD0123FAE76B
:101B90000023F8E720004742003802408006474211
:101BA0000070004060004742174B986800F00C023C
:101BB000082A26D00C2A0CD0042A08D0124B5868C8
:101BC000C0F34230431C4FF40040984070470F4828
:101BD0007047C0F383420E498A5CC0F381500130E4
:101BE000094B9B6813F4803F05D00A4B03FB02F3BB
:101BF000B3FBF0F07047054B03FB02F3B3FBF0F0CF
:101C000070470448704700BF003802400024F400C9
:101C1000AC81000800127A00002800F0DC8070B56A
:101C200004466F4A126802F001028A4214D2012966
:101C30000CD06B48026822F001020A43026002687D
:101C400002F001028A4207D0012070BD6448026898
:101C500042F004020260ECE7226812F0020F06D0A4
:101C60006048826822F0F002A3681A4382600D4641
:101C7000236813F0010F6CD06368022B0AD0032B8A
:101C80002CD0012B31D0574A126812F4007F07D1B3
:101C90000120DAE7534A126812F4003F00F09D80F9
:101CA00050498A6822F0030213438B60FFF788F8DB
:101CB00006466368022B1FD0032B2CD0012B39D092
:101CC000484B9B6813F00C0F43D0FFF779F8801B4B
:101CD00041F288339842F3D90320B6E7414A1268AB
:101CE00012F0007FDCD10120AFE73E4A126812F00B
:101CF000020FD5D10120A8E73A4B9B6803F00C03F3
:101D0000082B26D0FFF75CF8801B41F288339842FD
:101D1000F2D9032099E7334B9B6803F00C030C2B9B
:101D200017D0FFF74DF8801B41F288339842F2D963
:101D300003208AE72B4B9B6803F00C03042B08D08D
:101D4000FFF73EF8801B41F288339842F2D9032016
:101D50007BE7234B1B6803F00103AB4214D9012D31
:101D60000CD01F4A136823F001032B431360136840
:101D700003F00103AB4207D0012066E7184A13685D
:101D800043F004031360ECE7236813F0040F06D05C
:101D9000144A936823F4E063E1680B43936023687B
:101DA00013F0080F07D00F4A936823F4605321699A
:101DB00043EAC1039360FFF7F7FE0A4B9B68C3F346
:101DC0000313094AD35CD840084B1860084B1868C5
:101DD000FEF7B4FF39E701207047012035E700BF67
:101DE000003C024000380240B88100081C0000207E
:101DF00004000020014B1868704700BF1C00002041
:101E000008B5FFF7F7FF044B9B68C3F30223034AAF
:101E1000D35CD84008BD00BF00380240C88100082C
:101E200008B5FFF7E7FF044B9B68C3F3C223034ADF
:101E3000D35CD84008BD00BF00380240C88100080C
:101E400038B504460268D36823F0A003D360FEF7D8
:101E5000B7FF05462368DB6813F0200F07D1FEF7B4
:101E6000AFFF401BB0F57A7FF4D9032000E00020DB
:101E700038BD38B50368DA6812F0400F01D0002091
:101E800038BD04464FF0FF32DA60FEF799FF054691
:101E90002368DB6813F0400F07D1FEF791FF401B6A
:101EA000B0F57A7FF4D90320EAE70020E8E70023C1
:101EB00002E001330A38C0B20928FAD81B01DBB2AC
:101EC00018437047037F012B71D070B50E4604464E
:101ED000012303770223437752BB03689B6813F007
:101EE000400F01D10023CB703078FFF7E0FF0504ED
:101EF0007078FFF7DCFF45EA0025B078FFF7D7FFE1
:101F00002843F57840EA05452368CA225A622368C7
:101F100053225A622046FFF7ACFFD8B12368FF2254
:101F20005A6204236377002323770123184670BD88
:101F300003689B6813F0400F01D10023CB70357804
:101F40007078000240EA0540B5782843F57840EA09
:101F50000545D9E7236805F07F3525F0FE451D606E
:101F60002268936823F48023936021688B687268E9
:101F7000B068024313438B602268D36823F0800368
:101F8000D3602046FFF75CFF034638B92268FF2183
:101F900051620122627700222277C7E72368FF227D
:101FA0005A6204236377002323770123BEE70223C9
:101FB00018467047030903EB83035A0000F00F0033
:101FC0001044C0B2704770B503681B6803F07F33DC
:101FD00023F0FE431D0C05F03F000870C3F30626F6
:101FE0004E7003F07F048C7005F04005CD705AB937
:101FF0000D46FFF7DFFF28703046FFF7DBFF687004
:102000002046FFF7D7FFA870002070BD70B50368A9
:102010005B6823F07F4323F0C003180CC870C3F340
:1020200004264E7003F03F058D70C3F342330B70EE
:102030005AB90C46FFF7BEFFE0703046FFF7BAFF13
:1020400060702846FFF7B6FFA070002070BDF8B59D
:1020500005460F4616461C462B689B6837EA030365
:102060000CBF01230023B34237D0B4F1FF3FF3D0BC
:10207000FEF7A6FE069BC01AA04201D2002CEBD1AF
:102080002A68536823F0E00353606B68B3F5827FDE
:102090000BD0AB6AB3F5005F14D0012385F8513043
:1020A000002385F85030032018E0AB68B3F5004FEB
:1020B00002D0B3F5806FECD12A68136823F0400397
:1020C0001360E6E72A68136823F4005313602A6854
:1020D000136843F400531360DFE70020F8BD10B528
:1020E00082B004464068B0F5827F08D094F8510071
:1020F000C0B2052813D00023184602B010BD0092CC
:102100000B46002280212046FFF7A1FF034600284E
:10211000F2D0636D43F0200363650323ECE7009284
:102120000B46002201212046FFF791FF03460028BD
:10213000E2D0636D43F0200363650323DCE70028EE
:1021400033D010B504460023836290F851303BB37E
:10215000022384F851302268136823F0400313608F
:102160006368A2681343E2681343226913436269F8
:102170001343A26902F400721343E2691343226A13
:102180001343A16A22680B431360638B226803F038
:102190000403536000206065012384F8513010BDB2
:1021A00080F8503001F03EFED2E7012070472DE963
:1021B000F04383B0DDF8288090F85040012C00F007
:1021C0000B811D4617460E460446012380F8503009
:1021D000FEF7F6FD814694F85100C0B2636801280D
:1021E00015D0B3F5827F0AD00223012284F8512052
:1021F000002284F85020184603B0BDE8F083A3689D
:10220000002B40F0DB80042801D00223EDE7002EF4
:1022100000F0D680002F00F0D580002D00F0D48093
:1022200094F85130DBB2042B02D0052384F85130EE
:1022300000236365A763E587A5872663E586A586F2
:102240002364636423681A6812F0400F03D11A688C
:1022500042F040021A60E368B3F5006F10D0636883
:102260000BB1012D0AD1226B236812781A73236BEC
:1022700001332363E38E013B9BB2E386012569E0D2
:1022800063680BB1012D0AD1226B23681288DA60D2
:10229000236B02332363E38E013B9BB2E38601256C
:1022A0001BE023689A6812F0010F0DD0E28F92B202
:1022B00052B1DA68A36B1A80A36B0233A363E38F76
:1022C000013B9BB2E3870125FEF77AFDA0EB0900F5
:1022D000404502D3B8F1FF3F78D1E38E9BB21BB9E2
:1022E000E38F9BB2002B52D023689A6812F0020F42
:1022F000D7D0E28E92B2002AD3D0002DD1D0226B5B
:102300001288DA60236B02332363E38E013B9BB2B6
:10231000E3860025C5E723689A6812F0010F0DD007
:10232000E28F92B252B1DA68A36B1A70A36B0133D9
:10233000A363E38F013B9BB2E3870125FEF740FDDA
:10234000A0EB0900404502D3B8F1FF3F40D1B8F1FE
:10235000000F3FD0E38E9BB213B9E38F9BB2B3B1B2
:1023600023689A6812F0020FD5D0E28E92B2002A4A
:10237000D1D0002DCFD0226B12781A73236B01338A
:102380002363E38E013B9BB2E3860025C3E74A4605
:1023900041462046FFF7A3FE034618B1202363659C
:1023A000012322E7A268002A7FF41FAF019222686E
:1023B000D168019192680192019A16E7022314E70D
:1023C000012312E7012310E701230EE703230CE7A3
:1023D00003230AE7032308E702230CE70268D36814
:1023E00023F49073D3600268536923F001035361AF
:1023F000202380F83A30704790F83930DBB2212B37
:102400002AD18368B3F5805F16D0036A5A1C026232
:102410001A7803685A60C38C013B9BB2C384EBB942
:102420000268D36823F08003D3600268D36843F066
:102430004003D36000207047036A1B880268C3F31F
:102440000803536003691BB9036A02330362E2E7BE
:10245000036A01330362DEE7022070470020704701
:1024600038B504460268136923F44053C1680B432E
:10247000136183680269134342691343C2691A43B3
:102480000168CB6823F4164323F00C031343CB609D
:102490000268536923F4407381690B435361C36934
:1024A000B3F5004F23D00268444B9A4265D0FFF742
:1024B000A7FC00EB800000EB800063689B00B0FB92
:1024C000F3F03F4DA5FB00325109642202FB1102DB
:1024D00013013233A5FB03235B0903F0F00202EB87
:1024E000011203F00F03216813448B6038BD0268AA
:1024F000324B9A4220D0FFF783FC00EB800000EBC8
:10250000800063685B00B0FBF3F02D4DA5FB00324B
:102510005109642202FB1102D3003233A5FB0323CD
:102520005B095A0002F4F87202EB011203F0070390
:10253000216813448B60D9E7FFF772FC00EB800041
:1025400000EB800063685B00B0FBF3F01C4DA5FB63
:1025500000325109642202FB1102D3003233A5FB81
:1025600003235B095A0002F4F87202EB011203F034
:102570000703216813448B60B8E7FFF751FC00EBB9
:10258000800000EB800063689B00B0FBF3F00C4D13
:10259000A5FB00325109642202FB11021301323300
:1025A000A5FB03235B0903F0F00202EB011203F029
:1025B0000F03216813448B6098E700BF0038014087
:1025C0001F85EB5158B310B5044690F839300BB362
:1025D000242384F839302268D36823F40053D3606D
:1025E0002046FFF73DFF2268136923F490431361EF
:1025F0002268536923F02A0353612268D36843F4A5
:102600000053D3600020E063202384F8393084F83D
:102610003A3010BD80F8383001F054FCD8E7012082
:10262000704790F83A30DBB2202B20D109B312B3B7
:1026300090F83830012B20D081628285C28500233A
:10264000C363222280F83A2080F838300168CA68D3
:1026500042F48072CA6001684A6942F001024A612C
:102660000168CA6842F02002CA601846704702201A
:102670007047012070470120704702207047704763
:1026800008B50168CB6823F04003CB60202380F8B5
:102690003930FFF7F4FF002008BD704708B590F807
:1026A0003A30DBB2222B45D18368B3F5805F0ED080
:1026B000036903BB03685A68836A591C81621A70F4
:1026C000C38D013B9BB2C385F3B1002033E0826A26
:1026D000036943B903685B68C3F308031380836A23
:1026E00002338362ECE703685B68DBB21380836AC2
:1026F00001338362E4E703685B68826A511C81628C
:1027000003F07F031370DBE70268D36823F0200334
:10271000D3600268D36823F48073D360026853697E
:1027200023F001035361202380F83A30FFF7B5FF0F
:10273000002000E0022008BD7047000010B50446EC
:1027400002681368D168526913F00F0005D113F0C5
:10275000200F02D011F0200F53D1002867D012F0C3
:10276000010202D111F4907F61D013F0010F06D065
:1027700011F4807F03D0E06B40F00100E06313F0C0
:10278000040F04D01AB1E06B40F00200E06313F0D4
:10279000020F04D01AB1E06B40F00400E06313F0C4
:1027A000080F04D01AB1E26B42F00802E263E26B58
:1027B000002A48D013F0200F02D011F0200F24D1AE
:1027C00023685B6903F04003E26B12F0080F00D14D
:1027D0003BB32046FFF702FE23685A6912F0400F10
:1027E0001BD05A6922F040025A61636B8BB11A4ABE
:1027F0005A63606BFEF79EFB28B3606B436B984790
:1028000021E02046FFF74AFF1DE02046FFF746FF84
:10281000D6E72046FFF790FF15E02046FFF78CFF34
:1028200011E02046FFF788FF0023E3630BE013F07D
:10283000800F02D011F0800F06D113F0400F02D0AC
:1028400011F0400F04D110BD2046FFF7D5FDFAE787
:102850002046FFF715FFF6E75D28000808B5406A37
:102860000023C385C384FFF767FF08BD10B44FF68C
:10287000FF7209E003785340DBB2074931F81330A7
:1028800083EA1222214601304C1E0029F2D1D043A6
:1028900080B210BC704700BF387B00082DE9F843B8
:1028A00005460E4691461F46002405E0335D5B0059
:1028B0002B700134A4B201350621304602F000FA33
:1028C0008442F3D304E040232B700134A4B20135D9
:1028D000052CF8D94FEA490909F01E0905F101084C
:1028E00049F060032B70002407E0335D5B0088F83B
:1028F00000300134A4B208F101080621384602F084
:10290000DFF98442F1D306E0402388F80030013437
:10291000A4B208F10108052CF6D949F0610988F83C
:1029200000900E20BDE8F883B2F5807F01D9002029
:1029300070472DE9F8434FF07E34046044608460B2
:10294000C460099C0E2C04D01C2C02D00020BDE8D1
:10295000F8831F4616468846044600F11009099A76
:102960000899484601F0CCFC099B03F110050B9B2C
:10297000013B012B01D90020E9E70B9A0AA9601954
:1029800001F0BEFC0B9B1D441FB1032F01D02F464D
:1029900002E06F1CF023635532464146E01901F016
:1029A000AFFC3E44A6F110014846FFF75FFF731CE1
:1029B000A055B11C000AE05462184FF07E336350FA
:1029C00053609360D36006F11200C0E7F0B506468D
:1029D0008C4600273C4608E006EB040E1B4D03CD59
:1029E0003051CEF80410083401370F2FF4D90027E6
:1029F000384601E001372C4603F100512039B7EB8E
:102A0000C10F14D202EBD701097C07F00705294159
:102A100001F0010141EA4000C0B2651C315500F0EF
:102A20001F011F29E6D100207055A51CE2E70022F6
:102A300006E03519054B03CB30516960083401328B
:102A40000F2AF6D9CCF800400120F0BD387D0008EF
:102A5000F0B58DB004460E46174600220592069248
:102A60000792089209920A920B921A4603B10E221B
:102A7000334905AD0023009301F5027301F504719C
:102A80002846FFF70BFF01230393032302930190D2
:102A900000953A4631462B48FFF746FF034600288B
:102AA00047D02848024604A900F59E70FFF78EFF24
:102AB000012841D14FF49E720021224801F02BFCE5
:102AC00000230CE0DD081F4AD11891F83C1103F0F7
:102AD000070001FA00F0515D014351550133049A9A
:102AE0009A42EFD812F0070301D0C3F108031A4449
:102AF0000492154D102300222121284601F086F86A
:102B0000284601F08DF8049BDB080E4A2146284632
:102B100001F090F8002306E0E15C094A0A4492F8CB
:102B20001422E25401330498C0089842F4D80DB03E
:102B3000F0BD4FF0FF30FAE74FF0FF30F7E700BF8E
:102B4000387B0008240A0020D41A002030B587B052
:102B50000D46002305930493B0F53C5F35D3AF23B6
:102B60008DF814308DF81500032400224FF48051A5
:102B70001948FEF733FB41F288330093234604AA39
:102B800005A91648FFF713FB154B1B68154AA2FB56
:102B900003239B0C9B00029300230393039B0133AD
:102BA0000393039A029B9A42F8D301224FF4805177
:102BB0000948FEF713FB013C06AB1C4414F8083C23
:102BC0002B709DF8100007B030BD40F080008DF8EC
:102BD00014000224C9E700BF00040240701D002059
:102BE0001C00002083DE1B4330B585B00023029318
:102BF000B0F53C5F1ED28DF80C008DF80D1002254B
:102C0000114C00224FF480512046FEF7E7FA41F2C2
:102C1000883300932B4602AA03A90C48FFF7C7FA92
:102C200001224FF480512046FEF7D8FA9DF80800A3
:102C300005B030BD2F238DF80C308DF80D008DF8C8
:102C40000E100325DCE700BF00040240701D0020C9
:102C500010B584B08DF80F000D4C00224FF4805158
:102C60002046FEF7BBFA41F28833009301230DF1B1
:102C70000E020DF10F010748FFF799FA01224FF4F8
:102C800080512046FEF7AAFA9DF80E0004B010BD50
:102C900000040240701D002030B585B00D4614467A
:102CA000194B7F2103F8011B0146184601F028FB50
:102CB00000224FF480511548FEF790FA144B1B6820
:102CC000144AA2FB03239B0C9B0002930023039353
:102CD000039B01330393039A029B9A42F8D3631C2C
:102CE0004FF47A6200929BB22A4607490A48FFF7DE
:102CF0005EFA044601224FF480510448FEF76EFA52
:102D0000204605B030BD00BF40170020000402403F
:102D10001C00002083DE1B43701D00202DE9F04FB6
:102D200093B00290894603920593814B00221A705A
:102D3000FF2914D94023049304992820FFF754FF56
:102D40005FFA89F12E20FFF74FFFFEF739F883462F
:102D50004E46012301934FF0000A55463AE0002306
:102D60000493E9E7A9EB0504A4EB0A04422C28BF6D
:102D7000422422460399029BD819FFF78DFF41E0B8
:102D800000212820FFF730FF0023049344E00123B3
:102D900013B9A2463D461DE0664B1B68664AA2FB7E
:102DA00003239B0C4FF47A7202FB03F30993002375
:102DB0000A930A9B01330A930A9A099B9A42F8D311
:102DC0003620FFF745FF3B20FFF742FF6FF003007F
:102DD0008DE0254405EB0A074F4545D2574B0022AD
:102DE0001A70019B002BBDD04C46802C28BF80243C
:102DF000224603990298FFF74FFF3520FFF728FF7F
:102E000000230193361B0AEB0408C8F58073B34214
:102E100002D9049B002BB3D1B8F13F0FD9D94C454F
:102E2000D7D0002ED5D0059DFDF7CAFFA0EB0B0033
:102E3000A842ACD23F4B1B683F4AA2FB03239B0C2A
:102E40004FF4487202FB03F3079300230893089B97
:102E500001330893089A079B9A42F8D3374B1B78A3
:102E6000002BE1D0002393E7059CFDF7A9FFA0EB21
:102E70000B00A0421ED22F4B1B682F4AA2FB03233C
:102E80009B0C4FF4487202FB03F30B9300230C934B
:102E90000C9B01330C930C9A0B9B9A42F8D30DF1C7
:102EA000470142F6D670FFF751FE9DF84730002BE0
:102EB000DBD100E00123EBB91E4B1B681E4AA2FBCD
:102EC00003239B0C4FF47A7202FB03F30F9300234E
:102ED0001093109B01331093109A0F9B9A42F8D3D2
:102EE0003620FFF7B5FE3B20FFF7B2FE384613B0A1
:102EF000BDE8F08F0F4B1B680F4AA2FB03239B0C0E
:102F00004FF47A7202FB03F30D9300230E930E9B92
:102F100001330E930E9A0D9B9A42F8D33620FFF799
:102F200097FE3B20FFF794FE6FF00300DFE700BF42
:102F30004B1900201C00002083DE1B434C1900208D
:102F400030B583B03020FFF783FE00240EE0094B3C
:102F500003EBC40233F8345011792846FFF744FEDE
:102F60000DF107012846FFF7F1FD01343C2CEED9A5
:102F700003B030BD4C7E000800B585B0002142F69C
:102F80002570FFF731FE0DF10F0142F61570FFF7C6
:102F9000DDFD9DF80F100231C9B242F61570FFF742
:102FA00023FE3320FFF754FE0DF1070142F6737044
:102FB000FFF7CCFD9DF80730412BF5D103A942F670
:102FC0002570FFF7C3FD0DF10D0142F62370FFF7E9
:102FD000BDFD0DF10E0142F61870FFF7B7FD00219F
:102FE00042F62570FFF700FE9DF80F1042F61570AF
:102FF000FFF7FAFD3320FFF72BFE0DF1070142F634
:103000007370FFF7A3FD9DF80730412BF5D102A99E
:1030100042F62570FFF79AFD0DF1090142F6237083
:10302000FFF794FD0DF10A0142F61870FFF78EFDCF
:103030009DF80C309DF808108B4212D842F625708E
:10304000FFF7D2FD9DF8091042F62370FFF7CCFD83
:103050009DF80A1042F61870FFF7C6FD05B05DF83E
:1030600004FB194642F62570FFF7BEFD9DF80D10D2
:1030700042F62370FFF7B8FD9DF80E1042F6187067
:10308000FFF7B2FDEAE7000010B5FDF799FEFDF786
:10309000B9F9084BC3E900010021074B197050240E
:1030A0002246064801F037F9224605490548FFF750
:1030B000B8FA10BDC8170020E81A0020F81C00203C
:1030C000441C0020AC1E0020014B00221A707047E7
:1030D000401C002038B5054603685B68DBB2818D73
:1030E000C28D92B2914210D0242B19D00A2B26D037
:1030F000EA8D92B291421CD9AA6A511CA96213703E
:10310000EB8D013B9BB2EB8513E0242BECD1826A63
:10311000511C81621370C38D013B9BB2C38508E0D3
:10312000E985AA6A511CA9621370EB8D013B9BB221
:10313000EB85EB8D9BB20BB9AB8DEB8538BDAA6AE5
:10314000511CA9621370EB8D013B9BB2EB85AB6AFE
:1031500000241C700B4B01221A700B4BAB625022E7
:1031600021460A4801F0D7F8214605E0064B5A5C93
:10317000064B5A540131C9B24F29F7D9AB8DEB85B3
:10318000D7E700BF401C0020441C0020F81C002092
:1031900010B582B002AB03E903001446FFF774FFD9
:1031A000012384F85930FFF78FFF002002B010BDD3
:1031B0002DE9F04F99B082468069FDF733F9044656
:1031C0000D4600225A4BDAE90801FDF7BFFA024624
:1031D0000B4620462946FCF7D9FF80468946DAF897
:1031E0000000FDF71FF904460D460022504BDAE9B6
:1031F0000201FDF7ABFA02460B4620462946FCF7D2
:10320000C5FF06460F4602AC58220021204601F0B9
:1032100082F8DFF830B1474DCDE900895A460921DF
:1032200005F1080001F0CEFC9AF828302B7405F166
:103230001408CDE900675A460921404601F0C2FC56
:103240009AF810302B7705F12009DAF848303A4A1D
:103250000721484601F0B6FC384E05F1280BDAE9A3
:103260000C23CDE9002332460821584601F0AAFC80
:10327000DAE90E23CDE900233246052105F13000BD
:1032800001F0A0FC05F13407DAE91023CDE90023B1
:1032900032460521384601F095FC06224946204673
:1032A00001F0F9FC2046FDF74FFC254B1E88265205
:1032B00005F10801204601F0B9FC2046FDF744FC69
:1032C00026524146204601F0B1FC2046FDF73CFC69
:1032D00026525946204601F0A9FC2046FDF734FC51
:1032E000265204223946204601F0AFFC2046FDF765
:1032F0002BFC2652042205F13001204601F0A5FCEA
:1033000038354FF49E720021284601F004F82C2233
:103310002146204601F099FC4FF47A630093002384
:103320002A465821204600F077FF19B0BDE8F08FFB
:1033300000004E40C8170020D8810008DC8100083A
:10334000E0810008D081000808B503681A68DB68CE
:1033500012F0200F02D003F0200303B908BDFFF7DD
:10336000B9FEFBE7F8B50546124C0022124BD4E932
:103370000001FDF7EBF906460F4604F5BC74002288
:103380000D4BD4E90001FDF7E1F902460B4630464A
:103390003946FCF7F9FE0022084BFDF7D7F9024643
:1033A0000B460749D1E90001FDF7D0F9C5E9100145
:1033B000F8BD00BFC817002000408F400000244027
:1033C000481D0020F0B587B00446816C002211E052
:1033D0001D4880FB0130CB17C3EBA0031D4603EB58
:1033E000830358000B1A06A901EB820141F8183C2F
:1033F00029460132052AEBDD019B03EB83035A00CA
:10340000009F1744039B03EB83035A00029D15445E
:10341000059B03EB83035A00049E1644C5EB05137A
:10342000980038444FF4616303FB0600074B5B6868
:10343000C01AFCF7F7FFC4E91401FAB2E9B2F0B21E
:1034400000F02EFE07B0F0BD6766666680190020AA
:10345000F8B500231E469C461F460CE00CF1010502
:10346000162404FB0C2C00240CF806405FFA85FCA3
:1034700026460133DBB28B4220D21D46C45C674036
:103480002C2CEBD02A2C08D0162505FB0C2506F198
:10349000010EAC555FFA8EF6EBE7162303FB0C2307
:1034A00000229A556B1CA91C10220144184402F0FA
:1034B00013FBC0B2874203D0012000E00020F8BD1A
:1034C0000020FCE70000000008B503A3D3E90023B7
:1034D000FDF73CF908BD00BFBC22F8DF4A76E03FAB
:1034E0002DE9F84F04460D4606220146424801F0F8
:1034F000C0FB40B106222146404801F0BAFB68B14A
:103500000020BDE8F88F04F1A90104F19A0002F04F
:1035100007FAFFF7D9FFC5E90E01F1E704F125012C
:1035200004F1160002F00EFAFDF7C8FAA864EB6C7D
:10353000002B59D004F1A90104F19A0002F002FA1B
:10354000FDF7E2FA85F8580004F1670104F158002C
:1035500002F0E6F98046894604F13B0104F12C00B3
:1035600002F0DEF906460F4694F86E302B7494F89C
:10357000423085F8283040464946FDF757FADFF8D3
:1035800084B08BFB0023C017C0EB631028604FF0A2
:10359000640A0AFB00F0FCF745FF02460B46404672
:1035A0004946FCF7F1FDC5E9020130463946FDF711
:1035B0003DFA8BFB003BC017C0EB6B10A8610AFB08
:1035C00000F0FCF72FFF02460B4630463946FCF769
:1035D000DBFDC5E9080104F1D50104F1C60002F0E4
:1035E0009FF9C5E90C018BE7054B18600123EB64DB
:1035F00000F0ACFD9EE700BFE4810008EC8100080C
:10360000801900201F85EB5138B5002401E00134FA
:10361000E4B20F2C10D8094B1B78012BF7D1FFF720
:1036200053FD074D2A4650210648FFF711FF064972
:103630002846FFF755FFEAE738BD00BF401C0020D1
:10364000EC1A0020F81C0020981C00202DE9F84FEF
:103650000446FFF7D9FF94F85830022B0AD92368A3
:1036600043B1A36933B100220023D4E90C01FDF773
:10367000ABF910B10020BDE8F88F2046FFF7A2FE9D
:10368000374B1B78002B48D0354B1D784DB3DFF8F6
:10369000D8B02846FCF7C6FEDBE90023FCF72CFF78
:1036A00080468946D4E90C67DFF8B8A0DAE9002340
:1036B00030463946FCF768FD02460B46404649460F
:1036C000FCF764FD80468946681CFCF7ABFE0246A9
:1036D0000B4640464946FDF739F8CBE90001CAE9F7
:1036E0000067032D2BD01E4A13780133137000237B
:1036F000236000200021C4E902012374A361C4E90E
:10370000080184F82830C4E90C01C4E90E01C4E9B9
:103710001401A36484F85830ACE7D4E90C01114BD0
:10372000C3E90001104B00200021C3E90001FDF7AF
:1037300047FBFCF767FE0D4BC3E90001A4E7084B0C
:10374000FF221A70FDF73CFBFCF75CFE084BC3E957
:1037500000012046FFF706FE2046FFF729FDC2E7DD
:10376000E81A0020381C0020481D002040190020C5
:10377000C817002048B110B41F2B09D8016042605F
:10378000C2608360002010BC70474FF0FF3070476C
:103790004FF0FF30F7E710B4C468026822405308C6
:1037A00003F05533D21A02F03333920802F0333269
:1037B000134403EB131303F00F3303EB032303EB67
:1037C000034381EA136303F0010381688B4043EAFA
:1037D0005403C36004F0010010BC704718B1426884
:1037E000C260002070474FF0FF3070472DE9F04372
:1037F00089B02E4BDA6942F00102DA61DA6902F02F
:1038000001020192019ADA6942F00202DA61DB698F
:1038100003F002030293029B254D00224FF48041E6
:103820002846FDF7DBFC4FF440730393214B0493D0
:1038300000240594204F03A93846FDF705FC4FF4FA
:103840000069CDF80C90012604960594069403A90E
:103850002846FDF7F9FB4FF48058CDF80C8004960C
:103860000594069403A92846FDF7EEFB4FF4806308
:103870000393124B0493059403A93846FDF7E4FB28
:103880008023039304960594069403A92846FDF724
:10389000DBFB324649463846FDF7A0FC324641463E
:1038A0002846FDF79BFC09B0BDE8F08300380240D4
:1038B000000402400000211000000240000011102E
:1038C00000B583B00A4BDA6942F08072DA61DB69D5
:1038D00003F080730193019B002211460F20FDF736
:1038E0009BFA0F20FDF7CCFA03B05DF804FB00BF94
:1038F0000038024008B50948094B03604FF41653DD
:10390000436000238360C36003610C2242614FF473
:1039100040728261C361FEF755FE08BD641E00203F
:103920000038014008B50848084B03604FF41653AF
:10393000436000238360C36003610C2242618361A2
:10394000C361FEF73FFE08BDAC1E002000440040EE
:1039500008B50848084B03604FF416534360002332
:103960008360C36003610C2242618361C361FEF71F
:1039700029FE08BDC81D00200048004008B50A48BF
:103980000A4B03600A4B4360002383601022C2602D
:103990004FF480420261436183614023C36180230D
:1039A0000362FDF79DFC08BD081E00200054004086
:1039B000A086010008B50C480C4B03604FF48273DD
:1039C000436000238360C360036143614FF400726E
:1039D00082611822C2610362436283620A23C36266
:1039E000FEF7ADFB08BD00BF701D00200038004091
:1039F00030B593B03422002105A800F08CFC0024DF
:103A000000940194029403940494124A136823F4DA
:103A1000C05343F400631360022305930125089506
:103A2000102209920E930F944FF4002310934FF439
:103A30000003119305A8FDF739FE0F23009303231C
:103A4000019302940394049429466846FEF7E4F82F
:103A500013B030BD0070004008B5FDF795F9FFF7D1
:103A6000C7FFFFF7C3FEFFF72BFFFFF743FFFFF78B
:103A700059FFFFF783FFFFF79DFFFFF769FF0D4C2D
:103A8000204600F055FB234653F8010959799A79ED
:103A900041EA0221DB79084A41EA0341FFF778FB5A
:103AA00000F09CFB00F00CF80348FFF7CFFD00F09E
:103AB00061F8F9E759190020981C002070470000B0
:103AC00008B5FDF77DF9054B18600023044A137013
:103AD000044A1370044A137008BD00BF5C1E002026
:103AE000601E0020A81E0020301F002008B50128FD
:103AF00014D0022823D000B108BD42F21073012275
:103B000017491848FDF7BCFC0028F5D042F21073A5
:103B1000012215491348FDF7B3FCEDE742F210739B
:103B2000012212490F48FDF7ABFC0028E4D042F215
:103B3000107301220C490B48FDF7A2FCDCE742F2AE
:103B4000107301220A490748FDF79AFC0028D3D0D8
:103B500042F21073012204490248FDF791FCCBE7C1
:103B60004D190020081E0020080000200900002038
:103B70000A00002008B5FDF723F91D4B18601D4B06
:103B80001B68C01A1C4B5B68834202DA1B4B1B7814
:103B900093B1194B9B68834202DA194B1B789BB196
:103BA000154BDB68834202DA164B1B78A3B1124B2C
:103BB0001B69834218DB08BD134B1878FFF796FF8B
:103BC0000E4B01221A70F6E70B4B5878FFF78EFF69
:103BD0000B4B01221A70EEE7074B9878FFF786FF30
:103BE000084B01221A70E6E7FFF76AFFE3E700BF20
:103BF000A41E00205C1E002008000020601E002083
:103C0000A81E0020301F00204D19002028B110B53B
:103C100000240474FFF7AEFD10BD4FF0FF30704775
:103C200028B108B500230374FFF7D8FD08BD4FF095
:103C3000FF307047002800F097802DE9F8430446D4
:103C4000984691460E46002588E019F80570FF4316
:103C5000FFB207F00101237CC91801F0010148BF40
:103C60004942C9B221742046FFF795FD7055C7F34C
:103C70004001237CC91801F0010148BF4942C9B283
:103C800021742046FFF787FD735D43EA40007055BD
:103C9000C7F38001237CC91801F0010148BF4942E4
:103CA000C9B221742046FFF776FD735D43EA8000B8
:103CB0007055C7F3C001237CC91801F0010148BF4A
:103CC0004942C9B221742046FFF765FD735D43EA9E
:103CD000C0007055C7F30011237CC91801F0010121
:103CE00048BF4942C9B221742046FFF754FD735DB5
:103CF00043EA00107055C7F34011237CC91801F046
:103D0000010148BF4942C9B221742046FFF743FD73
:103D1000735D43EA40107055C7F38011237CC918C6
:103D200001F0010148BF4942C9B221742046FFF7A2
:103D300032FD735D43EA80107055217C11EBD71181
:103D400001F0010148BF4942C9B221742046FFF782
:103D500022FD735D43EAC010705501354545FFF4FF
:103D600074AF0020BDE8F8834FF0FF3070470000CB
:103D700000B585B0104B5A6A42F000425A625A6A46
:103D800002F000420192019A1A6A42F001021A629C
:103D90001A6A02F001020292029A5A6A42F08052B2
:103DA0005A625B6A03F080530393039B0720FDF77D
:103DB00021F805B05DF804FB0038024010B588B06A
:103DC0000023039304930593069307930268124B11
:103DD0009A4201D008B010BD104CE36943F00203D1
:103DE000E361E36903F002030193019BC0230393A2
:103DF00012230493012305930423079303A908487E
:103E0000FDF722F9636A43F400136362636A03F403
:103E100000130293029BDDE700540040003802408B
:103E20000004024010B588B0002303930493059367
:103E30000693079302681F4B9A4201D008B010BD49
:103E4000044603F500335A6A42F480425A625A6AC1
:103E500002F480420192019ADA6942F00202DA61C8
:103E6000DB6903F002030293029B4FF46043039368
:103E700002230493032306930523079303A90E4803
:103E8000FDF7E2F80D480E4B03601023436000235A
:103E900083608022C260036143618361C361FDF777
:103EA00013F818B9054BA3645C62C7E7FFF706FE79
:103EB000F8E700BF0038004000040240EC1E00207C
:103EC0005860024000B58DB0002307930893099312
:103ED0000A930B9303683B4A934208D03A4A9342B1
:103EE00026D03A4A93424BD00DB05DF804FB384BD4
:103EF0001A6A42F480421A621A6A02F480420192FB
:103F0000019ADA6942F00102DA61DB6903F0010328
:103F10000293029B4FF4F053079302230893032369
:103F20000A9307230B9307A92A48FDF78DF8DBE7CF
:103F3000274B5A6A42F400325A625A6A02F400323B
:103F40000392039ADA6942F00102DA61DB6903F055
:103F500001030493049B0C23079302230893032378
:103F60000A9307230B9307A91A48FDF76DF800225F
:103F700011462620FCF750FF2620FCF781FFB3E70F
:103F8000134B5A6A42F480225A625A6A02F480221F
:103F90000592059ADA6942F00202DA61DB6903F000
:103FA00002030693069B4FF4406307930223089392
:103FB00003230A9307230B9307A90748FDF744F847
:103FC00092E700BF00380140004400400048004034
:103FD0000038024000000240000402407047FEE743
:103FE000FEE7FEE7FEE770477047704708B5FCF74D
:103FF000DBFE08BD10B5044C2046FFF7A5F92046AE
:10400000FEF79CFB10BD00BFAC1E002008B50248A7
:10401000FCF7B8FF08BD00BFEC1E002008B5034642
:104020000B4A126842B10A4A106803446A46934236
:1040300006D8074A136008BD054A06491160F2E731
:1040400000F034F90C2303604FF0FF30F3E700BFBA
:1040500050190020381F00200E4B1A6842F480725D
:104060001A6099680C4A0A409A601A6822F08852CD
:1040700022F001121A601A6822F480221A609A68EB
:1040800022F47D029A600022DA60044B4FF0006255
:104090009A607047003802400CC0FF8800ED00E0D5
:1040A00000B585B08DF804008DF805108DF8062058
:1040B00000220292039201A90248FDF703FF05B016
:1040C0005DF804FB501D002070B584B006460D4617
:1040D0001446002201A90748FDF775FF9DF804303A
:1040E00033709DF805302B709DF80630237004B0B6
:1040F00070BD00BF501D0020F0B583B004460F46D0
:1041000016461D46002201A90848FDF77FFF9DF8CD
:1041100005303B709DF8063033709DF807302B70EA
:104120009DF80430237003B0F0BD00BF501D002087
:1041300010B50446821D411D0430FFF7C5FFE31C86
:10414000621CA11C2046FFF7D7FF10BD10B487B03A
:104150001B4B996A002211E01A4880FB0130CB17F3
:10416000C3EBA0031C4603EB830358000B1A06A9FC
:1041700001EB820141F8183C21460132052AEBDDB2
:10418000019B03EB8303580000990844039901EB5A
:1041900081014A00029B1344059901EB81014C0007
:1041A000049A2244C3EB0313990001444FF4616362
:1041B00003FB0212024BDA6207B010BC704700BF6B
:1041C0005819002067666666034B01221A700022A8
:1041D0005A705A609A6070472000002010B50D4C4C
:1041E000214642F68F70FEF7B1FCFEF7A9FE0A20C9
:1041F000FCF7ECFD214642F68F70FEF7A7FCFEF7B8
:10420000BBFE214642F68F70FEF7A0FCFFF7DCFFF5
:1042100010BD00BF88190020B9B170B50C46B1F5CA
:10422000807F15D8164605460A4601460B48FEF71C
:104230000FFC00280FDD049B324621462846FEF77E
:104240006DFD002800DD204670BD6FF00200704754
:104250006FF00100F8E76FF00200F5E78C1900201D
:10426000002103E00B4B5B58435004310A480B4BD1
:1042700042189A42F6D30A4A02E0002342F8043B6D
:10428000084B9A42F9D3FFF7E7FE00F015F8FFF765
:10429000E3FB7047A884000800000020080A002003
:1042A000080A0020381F0020FEE70000014B1868B4
:1042B000704700BF3808002070B500250C4E0D4C2B
:1042C000A41BA410A54209D103F02AFC00250A4E24
:1042D0000A4CA41BA410A54205D170BD56F8253088
:1042E00098470135EEE756F8253098470135F2E753
:1042F000A0840008A0840008A0840008A48400080A
:1043000010B5431E0A44914200D110BD11F8014B73
:1043100003F8014FF7E703460244934200D1704788
:1043200003F8011BF9E7002B2DE9F0471E46BBBF40
:1043300003F100431E4600232D2388B0149FDDE9BE
:10434000121A27F02007462F1446109D0B7004D038
:10435000452F00D10135022300E0032307AA049270
:1043600006AACDE902A2CDE900352246334601F086
:1043700057FC472F804602D1119BDB0726D5462FDD
:1043800008EB050911D198F80030302B0AD1002232
:10439000002320463146FCF717FB18B9C5F101058B
:1043A000CAF80050DAF80030994400220023204671
:1043B0003146FCF709FB38B93022079B4B4505D243
:1043C000591C07911A70F8E7CDF81C904046079BDE
:1043D000159AA3EB0803136008B0BDE8F087F7B5A2
:1043E0000029B4BF2D232B230446B8BF4942092915
:1043F00004F8022B437021DD0DF107031F460A2646
:1044000091FBF6F506FB1511092D01F1300103F8BA
:10441000011C03F1FF32294609DC3031023B02F86E
:10442000011CBB42224604D3101A03B0F0BD134650
:10443000E6E713F8012B04F8012BF2E730231944C7
:104440008370021DC170EFE72DE9F04F91B00C466B
:104450001A9F93461E46054602F0C4FC03681846A0
:104460000993FCF771FB00230E933B680A90073316
:1044700023F0070303F1080294F81880D4F800A091
:104480003A60D3E90023C4E91223D4E9127929F070
:1044900000430B934FF0FF32A64B38460B99FCF7C5
:1044A0005BFB68BB4FF0FF32A24B38460B99FCF721
:1044B0009FFA28BB0022002338464946FCF78EFAB3
:1044C00010B12D2384F843309B4F9C4BB8F1470F1C
:1044D00098BF1F4603234FF0000923612AF004030D
:1044E000236000965B460FAA2146284600F0E2F9B9
:1044F000013040F090804FF0FF3011B0BDE8F08FF8
:104500003A464B4638464946FCF726FB10B18C4FDD
:104510008C4BDBE763684AF48062591C0DA80EA936
:1045200040D1062363604FF0000C0DF13303CDE959
:10453000012363682260CDE9030800933A464B46A5
:10454000CDE9051C2846FFF7EEFE08F0DF03472BF8
:10455000074609D10D9BD81C02DB6268934247DDF8
:10456000A8F102085FFA88F8B8F1650F0D9924D810
:104570000139424604F150000D91FFF730FF0E9AC9
:1045800081461318012A236102DC2268D10701D574
:10459000013323619DF83330002BA2D02D2384F802
:1045A00043309EE7B8F1670F00F06E81B8F1470F16
:1045B000B9D1002BB7D10123B4E7B8F1660F19D1F7
:1045C000002963680CDD216113B92268D20702D586
:1045D00001330B4423610D9B4FF00009A365D9E71C
:1045E00013B92268D00701D50233F3E70123F1E7BD
:1045F0004FF06708DDE90D32934205DB2268236145
:10460000D107E8D50133E5E7002BCCBF0123C3F187
:1046100002031344DEE723685A0507D423693A46A8
:1046200059462846B047013029D164E7B8F1650FF3
:1046300040F2D780D4E9120100220023FCF7C4F92C
:1046400088B30123404A59462846B04701303FF419
:1046500052AFDDE90D239A4202DB2368D8070ED55D
:10466000DDE9092359462846B04701303FF443AFFE
:10467000002704F11A080E9B013BBB4209DC2368AA
:104680009F0700F1FD80E0680F9B9842B8BF184675
:1046900033E70123424659462846B04701303FF4EC
:1046A0002AAF0137E7E70D9B002B2BDC0123264ABD
:1046B00059462846B04701303FF41DAF0D9B23B942
:1046C0000E9B13B92368D907D9D5DDE909235946CB
:1046D0002846B04701303FF40EAF4FF0000804F118
:1046E0001A090D9B5B42434501DC0E9B97E70123B2
:1046F0004A4659462846B04701303FF4FCAE08F11F
:104700000108EEE70E9AA36D9A42A8BF1A46002A46
:10471000904607DD134659463A462846B0470130D1
:104720003FF4E9AE04F11A034FF0000A28EAE878F2
:104730000B9315E0FFFFEF7FF8810008F48100087C
:1047400000820008FC8100080482000801230B9A03
:1047500059462846B04701303FF4CDAE0AF1010A70
:10476000D4F85890A9EB08035345EFDCDDE90D239D
:104770009A424F4414DB2368DA0711D40E9B0D993B
:10478000A3EB0902A3EB01099145A8BF9146B9F13A
:10479000000F0DDC002729EAE97904F11A0818E076
:1047A000DDE9092359462846B0470130E6D1A2E6A3
:1047B0004B463A4659462846B0470130EAD19AE678
:1047C0000123424659462846B04701303FF493AE94
:1047D0000137DDE90D239B1AA3EB0903BB42EFDC94
:1047E0004DE70E9A012A01DCDB0738D501233A4652
:1047F00059462846B04701303FF47DAEDDE9092334
:1048000059462846B047013007F101073FF473AE1F
:10481000D4E912010E9B002203F1FF380023FCF7BC
:10482000D3F8C0B943463A4659462846B047013006
:104830000DD160E60123424659462846B047013073
:104840003FF459AE01370E9B013BBB42F2DC4B46B5
:1048500004F15002E4E6002704F11A08F3E701230B
:10486000E1E70123424659462846B04701303FF46C
:1048700042AE0137E3680F9A9B1ABB42F1DC02E7B4
:10488000002704F11908F5E7002B3FF494AE4FF030
:10489000000CCDE9051C0DF133012260CDE90308C0
:1048A000CDE9012100933A464B462846FFF73BFDF0
:1048B00007464FE62DE9F04791461F468A680B6987
:1048C00006469342B8BF1346C9F8003091F843201A
:1048D0000C46DDF8208012B10133C9F8003023689E
:1048E000990642BFD9F800300233C9F80030256874
:1048F00015F0060507D104F1190AE368D9F800207C
:104900009B1AAB4229DC94F843302268003318BF6D
:10491000012392062ED404F1430239463046C047A3
:10492000013021D02368E56803F00603042B18BF8B
:104930000025D9F800204FF0000908BFAD1AA36880
:10494000226908BF25EAE5759342C4BF9B1AED189A
:104950001A344D451AD1002008E001235246394649
:104960003046C047013003D14FF0FF30BDE8F0873B
:104970000135C2E73020E11881F843005A1C94F851
:1049800045102244023382F84310C4E70123224633
:1049900039463046C0470130E6D009F10109D8E771
:1049A0002DE9F04301F1430C0C46097E85B06E29D8
:1049B0001746064698460C9A00F0B38022D8632921
:1049C00036D00AD8002900F0B980582900F0838039
:1049D00004F1420584F8421032E0642901D06929CB
:1049E000F6D120681368050603F104012AD51B6877
:1049F0001160002B03DA2D225B4284F843206F48BC
:104A00000A2239E0732900F09D8008D86F2920D050
:104A10007029DDD1236843F02003236003E075296A
:104A200017D07829D4D17823654884F8453055E0EB
:104A3000136804F14205191D1B68116084F84230A7
:104A400001238CE01B6810F0400F116018BF1BB2EF
:104A5000CFE713682568181D1060280601D51B686C
:104A600002E06806FBD51B886F2914BF0A220822C2
:104A70005248002184F843106568002DA560C0F2FB
:104A80009580216821F004012160002B3DD1002D8B
:104A900040F08E806546082A0BD12368DB0708D5D5
:104AA000236962689A42DEBF302305F8013C05F1B4
:104AB000FF35ACEB05032361CDF800803B4603AA2C
:104AC00021463046FFF7F6FE01304DD14FF0FF3062
:104AD00005B0BDE8F083394884F8451013682168B3
:104AE0001D1D1B6815600A060BD5CA0744BF41F09F
:104AF000200121601BB9226822F0200222601022CE
:104B0000B7E74D0648BF9BB2EFE76546B3FBF2F14E
:104B100002FB1133C35C05F8013D0B460029F5D1BA
:104B2000B9E713682568181D6169106028061B68BD
:104B300001D5196002E06A06FBD51980002365469D
:104B40002361B9E71368191D11601D6862680021AF
:104B5000284602F06FF908B1401B6060636823616A
:104B6000002384F84330A7E723692A4639463046B4
:104B7000C0470130AAD023689B0713D4E068039B89
:104B80009842B8BF1846A3E701234A463946304643
:104B9000C04701309AD00135E368039A9B1AAB42B3
:104BA000F2DCEBE7002504F11909F5E7002BACD1A5
:104BB000037804F1420584F842306CE7068200086D
:104BC000178200080CB430B5174B0C1E9DB01D6841
:104BD00008DA8B234FF0FF302B601DB0BDE830406A
:104BE00002B070474FF40273ADF814300CBF234687
:104BF00004F1FF33049307934FF6FF73029006907E
:104C0000ADF81630209A21AB02A92846019302F094
:104C100025FE431CBCBF8B232B60002CDDD0002263
:104C2000029B1A70D9E700BF38080020034610B570
:104C30001A785C1C3AB9013B11F8012B03F8012FDB
:104C4000002AF9D110BD2346F2E7034630B51C789F
:104C50005D1C44B912F1FF3204D311F8014B03F883
:104C6000014B14B930BD2B46F1E7002AF2D11A707E
:104C7000F0E710B56AB10139841810F8013B11F85A
:104C8000012F934203D1A04201D0002BF5D1981AF5
:104C900010BD1046FCE770B50446013902B970BD7D
:104CA000234611F8015F561E03F8015B2DB9144429
:104CB000A342F4D003F8015BFAE71C463246EDE765
:104CC000034610B501448B4202D01A785C1C0AB925
:104CD000181A10BD2346F6E72DE9F0410F4690461D
:104CE00002F080FB04460D46B8F1000F11D0C7F367
:104CF0000A53C3F16B03002B0BDD00241B0503F1EA
:104D00007F5505F5401522462B46FBF7F5FB04467B
:104D10000D4620462946BDE8F08100000000000055
:104D20002DE9F04F1F460023A1B0834638460E46BA
:104D300017921C9302F053F880460068FBF704FFBB
:104D40004FF0000904464FF0000A1B961B9B1A788F
:104D50000D2A32D8092A36D2002A3ED000230D93DC
:104D60001B9D2B78302B40F0AC806B78582B01D0FA
:104D7000782B67D10D9B029701931CAB0093894A56
:104D80001DAB1BA9584601F04FFD10F00704064665
:104D900005D0062C2BD1002301351B950D93179BB5
:104DA000002B40F0A6850D9BE3B14A460AF1004373
:104DB0001046194621B0BDE8F08F2B2A15D02D2AB8
:104DC00004D0202ACAD101331B93BFE701220D92E0
:104DD0005A1C1B925B78002BC2D1179B1B96002B91
:104DE00040F085854A465346E2E70022EFE71C9AE9
:104DF0003AB135211EA802F0E8FB1C99584602F092
:104E00005BF8013C042C06D8DFE804F00A03141711
:104E10000A00DDE91E9A3107C1D54AF0004ABEE713
:104E20001D9ADDE91E9302F2334223F4801343EA14
:104E3000025AF0E7DFF870A1EDE76FF0004A4FF09B
:104E4000FF39E8E71B9B5A1C1B925B78302BF9D08B
:104E5000002BA4D0012300250A2207931B9B069553
:104E6000089304951B980778A7F13003D9B2092954
:104E700029D92246D8F80010FFF7FBFE002831D0D0
:104E800000203B460246049C0590652B01D0452B33
:104E900014D124B910B9079B002B9ED000241B9E6F
:104EA000731C1B9373782B2B78D02D2B70D04FF065
:104EB000000CA3F13007092F7CD91B964FF0000E90
:104EC0009AE00023C7E7049901300829D7BF069963
:104ED00002FB053502FB01330693049B1B90013353
:104EE0000493BFE71B9B1A191B92049A1B5D002AAF
:104EF00037D00246049CA3F13001092913D90121BE
:104F00000591C2E71B9B01305A1C1B925B78302B2A
:104F1000F8D0A3F13102082A00F2F0841B9A08921B
:104F2000024600200446B3F1300E00F1010112D018
:104F30000A440A27214600EB040C8C4513D12118A2
:104F4000082904F10104044419DC0A21069B01FB31
:104F500003E3069300211B9B581C1B905B780846BB
:104F6000C9E70498D3E7082901F1010103DC069B96
:104F70007B430693E1E71029D8BF7D43DDE7102C82
:104F8000DCBF0A2101FB05E5E4E70123059381E786
:104F90004FF0010CB31C1B93B3788AE74FF0000C61
:104FA000F8E700BF288200080000F07F1B9B5F1C11
:104FB0001B975B78302BF9D0A3F13107082F3FF610
:104FC0007DAFA3F1300E1B9B09931B9B5F1C1B97AE
:104FD0005B78A3F13008B8F1090F37D909997F1A26
:104FE000082F44F61F6737DCBE45A8BFBE46BCF19C
:104FF000000F01D0CEF1000E002C51D100287FF41B
:10500000CEAE079A002A7FF4CAAE059A002A7FF432
:10501000E4AE4E2B27D021DC492B7FF4DEAEA44931
:105020001BA801F035FE00283FF4D7AE1B9BA14919
:10503000013B1BA81B9301F02BFE10B91B9B0133F6
:105040001B93DFF884A24FF00009A8E60A2101FBB8
:105050000E3EAEF1300EB8E7BE46C8E7692BDED093
:105060006E2B7FF4BAAE94491BA801F011FE002804
:105070003FF4B3AE1B9B1B78282B0ED11EAA8F4981
:105080001BA801F019FE052807D11F9BDDF87890B9
:1050900043F0FF4A4AF4E00A81E6DFF834A2D2E79F
:1050A000AEEB02030793049B0698002B08BF234630
:1050B000102C0493A046A8BF4FF01008FBF7A2F9EC
:1050C000092C81468A4613DC079B002B3FF467AE10
:1050D000079B7EDD162B65DC794A02EBC30E4A4640
:1050E000DEE900015346FBF707FA81468A4656E699
:1050F000734B03EBC80353E91223FBF7FDF9064694
:1051000028460F46FBF77EF902460B4630463946E5
:10511000FBF73CF80F2C81468A46D5DD079BA4EBB4
:1051200008089844B8F1000F40F39A8018F00F0374
:105130000AD063494A4601EBC301D1E90001534655
:10514000FBF7DAF981468A4638F00F0877D0B8F5D0
:105150009A7F4BDD4FF00008CDF81080CDF820800D
:10516000CDF8188022234FF00009DFF85CA1CBF8BE
:105170000030089B002B3FF412AE1C99584601F0FA
:105180009BFE0699584601F097FE0499584601F097
:1051900093FE0899584601F08FFE4146584601F0AB
:1051A0008BFEFCE5079AC4F125039342B6DB444D20
:1051B000C4F10F0405EBC4014A46D1E9000153468E
:1051C000FBF79AF9079B1C1B05EBC405D5E90023E7
:1051D00089E713F1160FA1DB394A4846A2EBC30257
:1051E000D2E900235146FBF7B1FA7EE70023484697
:1051F00051461D46334E4FEA2818B8F1010F21DC05
:105200000BB181468A462F4BAAF1547A03EBC505B0
:105210004A46D5E900015346FBF76EF92A4B0A4688
:105220000B402A4981468B4294D8A1F580118B42CC
:1052300086BF4FF0FF39DFF89CA002F1547A0023BB
:1052400005937BE018F0010F06D006EBC503D3E908
:105250000023FBF751F9012301354FEA6808CCE739
:10526000EDD0C8F1000818F00F020AD0144B4846E0
:1052700003EBC2035146D3E90023FBF767FA8146EB
:105280008A465FEA2818DAD0B8F11F0F24DD4FF004
:105290000008CDF81080CDF82080CDF818802223AA
:1052A0004FF000094FF0000ACBF8003061E700BF73
:1052B000F98100087B820008018200083C82000816
:1052C000B8820008908200080000F07F0000A07CF7
:1052D0000000F8FFFFFFEF7F18F0100318BF6A23EC
:1052E0004846059351460023A14DB8F1000F00F345
:1052F00013810BB181468A46059BBBB1CAF30A53A1
:10530000C3F16B03002B514610DD1F2B40F31081BE
:10531000342BD8BF4FF0FF324FF00009CFBF4FF012
:105320005C7A203B02FA03F303EA010A002200231D
:1053300048465146FBF748FB0028A8D1069B049A33
:10534000009308992346584601F008FE089000286B
:105350003FF400AF079A079B002AC3F10003A8BFE0
:1053600000234FF000080E9322EAE2731693CDF863
:105370001080089B5846596801F06AFD0690002885
:105380003FF4F0AE089B0C301A6903F10C010232B5
:105390009200FEF7B5FF1EAB01931DAB00934A468A
:1053A00053465846CDE90A9A02F092F81C9000281C
:1053B0003FF4D8AE0121584601F05CFE049003464C
:1053C00000283FF4CFAE1D9D1E9A002DABBF0E9B53
:1053D000169BEE185C1B059BA8BF169CA5EB03054E
:1053E0001544644B05F1FF35B8BF0E9E9D42C2F1D6
:1053F000360280F2AF805B1B1F2BA2EB03024FF043
:10540000010700F39C80002507FA03F30F93B718F8
:10541000059BBE4214441C443346A8BF3B46A342EE
:10542000A8BF2346002BC2BFFF1AE41AF61A0E9B30
:10543000BBB11A460499584601F0BAFE0490002800
:105440003FF490AE01461C9A584601F01CFE0990AC
:1054500000283FF487AE1C99584601F02DFD099BAA
:105460001C93002F7ADC079B002B08DD169A069907
:10547000584601F09DFE069000283FF473AE002CC4
:1054800008DD22460699584601F0E0FE0690002805
:105490003FF468AE002E08DD32460499584601F00C
:1054A000D5FE049000283FF45DAE069A1C9958463C
:1054B00001F03AFF804600283FF454AE0024C36850
:1054C0000499C4600C9301F015FFA04254DA0C9BC0
:1054D000F3B9B9F1000F1BD1CAF31303C3B92AF012
:1054E00000431B0D1B05B3F1D66F11D9D8F814304A
:1054F0001BB9D8F81030012B0ADD4146012258466D
:1055000001F0A4FE0499804601F0F4FE002868DC56
:10551000059B002B72D130E618F0010F04D0D5E9BD
:105520000023FAF7E9FF01234FEA68080835DCE6B3
:105530004FF0FF3202FA03F303EA0909F6E6C5F178
:105540007F4505F57F0505F57B45E23507FA05F54D
:105550000F975CE7012300250F9358E73A461C9903
:10556000584601F073FE1C9000287FF47CAFF9E5EB
:105570005082000802FCFFFFCDF824A040F0898093
:105580000C9ACAF3130342B3AF4A934256D1059B18
:105590004846EBB15346AD4A4FF0FF311A40B2F1E5
:1055A000D46F18D8120DC2F16B0301FA03F39842BD
:1055B00044D1A74B099A9A4202D101303FF4D2ADAF
:1055C000A24B099A4FF000091A4002F5801A9FE792
:1055D0004FF0FF33EBE70B46E9E77BBBB9F1000F78
:1055E0002CD105995346994AF1B102EA0A01B1F169
:1055F000D66F19DCB1F15C7F7FF751AE0023954A7D
:105600004846CDE914325146DDE91423FAF774FF18
:1056100081468A4600297FF4B0AD00287FF4ADAD05
:105620002223CBF80030A8E51340A3F580136FEADE
:10563000135A4FF0FF396FEA0A5A69E79DB1099B87
:105640001D423FF465AF0C9B059A4846514673B125
:10565000FFF742FB02460B46DDE90A01FAF796FD29
:1056600081468A4654E70F9B13EA090FE9E7FFF7E3
:1056700033FB02460B46DDE90A01FAF785FD0022FD
:10568000002381468A46FBF79FF900287FF407AE86
:105690003EE70499404601F06AFF00224FF0804344
:1056A00006460F46FBF7A4F9002875D00C9B002B8B
:1056B00047D00026684F684D099B23F000431B0D1F
:1056C0001B050F930F9A654B9A4240F0CF80DDE99E
:1056D0000A23CDE91423099B4846A3F1547A514685
:1056E00001F080FE02460B4630463946FAF704FFC9
:1056F0004A465346FAF74AFD0B465449584A194060
:10570000914281465ED90B9B02F15472934203D1C0
:105710000A9B01333FF426AD4FF0FF39DFF830A18B
:105720001C99584601F0C8FB0699584601F0C4FB85
:105730000499584601F0C0FB4146584601F0BCFBB5
:1057400017E6B9F1000F19D1099BC3F31303E3B9AD
:105750000022414B30463946FBF740F9C8B90022D8
:10576000404B30463946FAF7C7FE04460D4605F170
:10577000004318941993DDE918679DE7B9F1010F0B
:1057800003D1099B002B3FF48AAD0026364F00243D
:1057900091E70C9C334DEAE7324B00223046394604
:1057A000FAF7AAFE0C9B04460D4633B901F10043FB
:1057B00010901193DDE910677EE702460B46CDE9B4
:1057C0001023F7E703F1547A059B002BA8D12AF0A8
:1057D00000431B0D0F9A1B059A425646A0D129463D
:1057E0002046FBF723F9FAF71DFE0B460246294631
:1057F0002046FAF7C9FC0C9B04460D4633B9B9F1B3
:10580000000F03D1CAF31306002E6AD00AA3D3E90E
:10581000002320462946FBF7E1F800287FF4ADACD1
:1058200007A3D3E9002320462946FBF7F5F8002813
:105830003FF476AFA1E400BF9535A094FFFFDF3FB2
:1058400035E5AF350000E03FFFFF0F000000F07FBF
:10585000FFFFEF7F000050390000F03F0000E07FC5
:10586000FFFF9F7C0000E03F0000F0BF059B13B3EB
:105870000F9BB3F1D46F1ED825A3D3E90023204694
:105880002946FBF7B5F890B129462046FBF7F6F814
:10589000002808BF0120FAF7B5FD0C9B04460D4611
:1058A000D3B901F1004312901393DDE912670F9A07
:1058B00007F1D6639F1ADDE90A0101F093FD024664
:1058C0000B4630463946FAF717FEDDE90A23FAF7A8
:1058D0005DFC81468A4677E702460B46CDE91223F6
:1058E000E3E70DA3D3E90023FBF778F89FE7002354
:1058F0000D931B9B179A1360FFF755BA652B4FF05A
:1059000000023FF442AB012114460591FFF7BFBAF4
:105910000000C0FFFFFFDF419535A094FFFFCF3FA0
:10592000064B10B41C68064A236A002B08BF1346B6
:105930000A460146204610BCFFF7F2B9380800209D
:105940009C0800202DE9F041214E224A3468236A48
:10595000002B08BF13460A4601462046FFF7E0F930
:1059600005460C4602460B4628462146FBF7F4F84E
:1059700020B10020BDE8F04102F078B82146284669
:10598000FBF700F920F00048074613494046FBF7B3
:10599000BFF9C8B910494046FBF79CF9A0B924F0FB
:1059A00000444FF0FF320D4B28462146FBF7D4F858
:1059B00038B94FF0FF32094B28462146FBF718F85B
:1059C00010B1222233681A603846BDE8F08100BF6A
:1059D000380800209C080020FFFF7F7FFFFFEF7F3B
:1059E0002DE9F0478046894692461E460F463D46C1
:1059F000089815F8014B01F0EFF92044437813F0B3
:105A0000080332D12D2C32D101227C78BD1C002E0E
:105A10005DD0102E09D1302C07D12B7803F0DF0395
:105A2000582B4FD110266C780235002A14BF4FF046
:105A300000416FF000410027B1FBF6FC384606FB41
:105A40001C1EA4F13003092B17D81C46A64223DDE7
:105A50007B1C07D084451CD301D1A64519DB012747
:105A600000FB064015F8014BEBE72F46BFE72B2C58
:105A700004BFBD1C7C781A46C9E7A4F14103192B69
:105A800001D8373CE2E7A4F16103192B04D8573C55
:105A9000DCE74FF0FF37E5E77B1C08D122230846FF
:105AA000C8F80030BAF1000F07D1BDE8F08702B1A5
:105AB0004042BAF1000FF8D00FB105F1FF39CAF832
:105AC0000090F2E73024002EAFD10826ADE7302C4D
:105AD000A3D00A26A9E70000084B37B51C68084D7B
