:020000040800F2
:1000000000000820854C00083D4A00083F4A0008CF
:10001000414A0008434A0008454A00080000000021
:10002000000000000000000000000000474A000837
:10003000494A0008000000004B4A00084D4A0008E9
:10004000D54C0008D54C0008D54C0008D54C00080C
:10005000D54C0008D54C0008D54C0008D54C0008FC
:10006000D54C0008D54C0008D54C0008D54C0008EC
:10007000D54C0008D54C0008D54C0008D54C0008DC
:10008000D54C0008D54C0008D54C0008D54C0008CC
:10009000D54C0008D54C0008D54C0008D54C0008BC
:1000A000D54C0008D54C0008D54C0008D54C0008AC
:1000B000D54C0008D54C0008D54C0008D54C00089C
:1000C000D54C0008D54C0008D54C0008D54C00088C
:1000D000D54C0008D54C0008554A0008D54C0008FE
:1000E000D54C0008D54C0008D54C0008D54C00086C
:1000F000D54C0008D54C0008D54C0008D54C00085C
:10010000D54C0008D54C0008D54C0008D54C00084B
:10011000D54C0008D54C0008D54C0008D54C00083B
:10012000D54C0008D54C0008D54C0008D54C00082B
:10013000D54C0008D54C0008D54C0008D54C00081B
:10014000D54C0008D54C0008D54C0008D54C00080B
:10015000D54C0008D54C0008D54C0008D54C0008FB
:10016000D54C0008D54C0008D54C0008D54C0008EB
:10017000D54C0008D54C0008D54C00080000000004
:10018000D54C0008D54C0008D54C0008D54C0008CB
:10019000D54C0008D54C0008D54C0008D54C0008BB
:1001A000D54C0008D54C0008D54C0008D54C0008AB
:1001B000D54C0008D54C0008D54C0008D54C00089B
:1001C000D54C0008D54C000800000000D54C0008B4
:1001D000D54C0008D54C0008D54C0008D54C00087B
:1001E000D54C0008D54C0008D54C0008D54C00086B
:0801F000D54C0008D54C0008B5
:1002000010B5054C237833B9044B13B10448AFF350
:1002100000800123237010BDF809002000000000B9
:10022000A883000808B5034B1BB103490348AFF38B
:10023000008008BD00000000FC090020A883000821
:1002400053B94AB9002908BF00281CBF4FF0FF313D
:100250004FF0FF3000F072B9ADF1080C6DE904CE3B
:1002600000F006F8DDF804E0DDE9022304B0704791
:100270002DE9F047089E04468846002B4BD18A4260
:10028000154667D9B2FA82F24AB1C2F1200701FAE3
:1002900002F320FA07F7954047EA030894404FEA33
:1002A000154E230CB8FBFEF71FFA85FC0EFB1788D2
:1002B00043EA084307FB0CF1994209D9EB1807F10F
:1002C000FF3080F01B81994240F21881023F2B449D
:1002D0005B1AA4B2B3FBFEF00EFB103344EA0344F6
:1002E00000FB0CFCA44509D92C1900F1FF3380F068
:1002F0000781A44540F2048102382C4440EA0740BB
:10030000A4EB0C0400271EB1D4400023C6E900432F
:100310003946BDE8F0878B4209D9002E00F0EB800A
:100320000027C6E9000138463946BDE8F087B3FA30
:1003300083F7002F47D18B4202D3824200F2FA802A
:10034000841A61EB030301209846002EE0D0C6E931
:100350000048DDE702B9FFDEB2FA82F2002A40F07F
:100360008F80491B4FEA154E1FFA85F80127B1FB14
:10037000FEFC230C0EFB1C1143EA014308FB0CF1AD
:10038000994207D9EB180CF1FF3002D2994200F2E2
:10039000CD808446591AA3B2B1FBFEF00EFB1014B7
:1003A00043EA044408FB00F8A04507D92C1900F1E2
:1003B000FF3302D2A04500F2B6801846A4EB080431
:1003C00040EA0C409FE7C7F1200CBB4022FA0CFE2C
:1003D0004EEA030E01FA07F420FA0CF521FA0CF3A9
:1003E0004FEA1E482543B3FBF8F92C0C08FB1933E0
:1003F0001FFA8EFA44EA034309FB0AF49C4202FA0C
:1004000007F200FA07F10BD91EEB030309F1FF30E5
:1004100080F087809C4240F28480A9F102097344F5
:100420001B1BADB2B3FBF8F008FB103345EA0344E5
:1004300000FB0AFAA24508D91EEB040400F1FF33C1
:100440006BD2A24569D90238744440EA0940A0FB46
:100450000289A4EB0A044C45C2464B4654D351D002
:10046000002E69D0B1EB0A0564EB030404FA0CFC1E
:10047000FD40FC404CEA0505C6E90054002747E76B
:10048000C2F1200320FA03F7954001FA02F021FAA5
:1004900003F34FEA154E3843010CB3FBFEF71FFA86
:1004A00085F80EFB173341EA034107FB08F38B4243
:1004B00004FA02F407D9691807F1FF3C2FD28B42E6
:1004C0002DD9023F2944CB1A81B2B3FBFEF00EFBBB
:1004D000103341EA034100FB08F38B4207D9691846
:1004E00000F1FF3C17D28B4215D902382944C91AB2
:1004F00040EA07473BE73746304609E70746E7E665
:100500001846FBE64145ABD2B8EB020A69EB0E0296
:1005100001381346A4E76046E9E7184695E76746C1
:10052000D1E781467CE702382C4447E7ACF1020C66
:100530002B442FE7384608E73746E9E6704700BF07
:10054000034613F8012B002AFBD1181A0138704713
:1005500001F0FF01102A2BDB10F0070F08D010F874
:10056000013B013A8B422DD010F0070F42B3F6D178
:10057000F0B441EA012141EA014122F007047FF091
:1005800000070023F0E80256083C85EA010586EAE8
:10059000010685FA47F5A3FA87F586FA47F6A5FA24
:1005A00087F68EB9EED1F0BC01F0FF0102F0070230
:1005B00032B110F8013B013A83EA010313B1F8D1DB
:1005C0000020704701387047002D06BF35460338BC
:1005D000073815F0010F07D1013015F4807F02BFF5
:1005E000013015F4C03F0130F0BC0138704700BF46
:1005F00010B504460E4B18784FF47A73B3FBF0F342
:100600000C4A1068B0FBF3F000F09AF868B90F2CB0
:1006100001D901200AE0002221464FF0FF3000F00E
:100620004FF8034B5C60002000E0012010BD00BFCC
:10063000000000200800002008B5032000F02EF87C
:100640000020FFF7D5FF04F025F8002008BD0000CA
:10065000034A1168034B1B780B441360704700BFBB
:10066000D01A002000000020014B1868704700BF1E
:10067000D01A002038B50446FFF7F6FF0546B4F15E
:10068000FF3F02D0044B1B781C44FFF7EDFF401BDB
:10069000A042FAD338BD00BF000000200649CB6855
:1006A00023F4E0631B041B0C000200F4E06003432E
:1006B000024A1A43CA60704700ED00E00000FA05E4
:1006C00030B4154BDB68C3F30223C3F10704042CD9
:1006D00028BF04241D1D062D14D9033B4FF0FF3500
:1006E00005FA04F421EA0401994005FA03F322EA29
:1006F00003031943002807DB0901C9B2074B19544A
:1007000030BC70470023E9E700F00F000901C9B2CF
:10071000034B1954F4E700BF00ED00E000E400E0F3
:1007200014ED00E0002807DB00F01F024009012360
:100730009340024A42F82030704700BF00E100E0D9
:100740000138B0F1807F0AD2064B5860064AF0218A
:1007500082F823100020986007221A607047012059
:10076000704700BF10E000E000ED00E00268D3B287
:10077000103B0949A1FB03131B090849C95CC1656A
:10078000032B04D8064B13408365806D7047044BE0
:10079000134004338365F8E7ABAAAAAAC083000814
:1007A00000FCFFFF836A826992B9012B0AD01BB15A
:1007B000022B01D000207047C36A13F0807F2CD138
:1007C00000207047C36AB3F1C07F28D00020704773
:1007D000B2F5005F05D0022B29D9032B15D00020DC
:1007E0007047032B03D8DFE803F01C041C0A002029
:1007F0007047C36A13F0807F15D100207047C36A29
:10080000B3F1C07F11D000207047C36A13F0807F1E
:1008100001D001207047002070470120704701205F
:100820007047012070470120704701207047012068
:100830007047000070B50446FFF716FF002C5BD030
:100840000546002384F83430022384F835302268CA
:10085000136823F00103136023681A6812F0010F74
:100860000AD0FFF701FF401B0528F5D92023636557
:10087000032084F8350070BD1A6820481040616874
:10088000A2680A43E1680A4321690A4361690A438D
:10089000A1690A43E1690A43216A0A430243616A82
:1008A00004291ED01A602668756925F00705636A59
:1008B0001D43042B07D1A36A1D43E36A1BB12046E5
:1008C000FFF770FF90B975612046FFF74FFFE26DAB
:1008D0003F239340836000206065012384F8353016
:1008E000C9E7E16A206B01430A43DBE74023636504
:1008F000012084F83500BEE70120BCE73F8010E00E
:1009000090F83530DBB2022B03D080234365012001
:100910007047052380F835300268136823F001031F
:10092000136000207047000000230F2B00F2E180CD
:10093000F0B583B039E0092200E00022B2403A432A
:1009400002346C4E46F824206B4A1468EA4302EAEB
:1009500004064F6817F4803F01D045EA0406664C50
:100960002660646802EA04064F6817F4003F01D06D
:1009700045EA0406604C6660A46802EA04064F6813
:1009800017F4801F01D045EA04065B4CA660E468BA
:1009900022404E6816F4001F01D045EA0402564C6E
:1009A000E26001330F2B00F2A28001229A400C6812
:1009B00004EA0205AA42F4D14C68661E112C18BF45
:1009C000012E01D9122C12D186685F000324BC408D
:1009D00026EA0406CC68BC4034438460466826EAB4
:1009E00002064C68C4F300129A4032434260C26867
:1009F0005F000326BE40F64332408C68BC4014437F
:100A0000C4604A68122A18BF022A13D1DC080834CD
:100A100050F824E003F007024FEA820C0F2202FA9A
:100A20000CF22EEA020E0A6902FA0CF242EA0E02F7
:100A300040F82420026816404A6802F00302BA40D7
:100A4000324302604A6812F0805FAAD02B4A546C8D
:100A500044F480445464526C02F480420192019A3E
:100A60009C08A61C234A52F8267003F00302960045
:100A70000F22B24027EA0207214A90423FF45DAFBD
:100A800002F58062904222D002F58062904220D02E
:100A900002F5806290421ED002F5806290421CD026
:100AA00002F5806290421AD002F58062904218D01E
:100AB00002F58062904216D002F58062904214D016
:100AC00002F5806290423FF436AF0A2236E70122F7
:100AD00034E7022232E7032230E704222EE7052220
:100AE0002CE706222AE7072228E7082226E703B098
:100AF000F0BD704700380140003C01400038024022
:100B00000000024012B90904816170478161704799
:100B100003689A6912F0020F01D000229A620368FA
:100B20009A6912F0010F03D19A6942F001029A61A9
:100B3000704770B4039E05686868740D04F480649F
:100B400044F07F7444F4583444F47F7444F0030454
:100B500020EA0400C1F3090141EA0241194331438B
:100B60000143696070BC704770B504460D46164677
:100B700003689B6913F0100F1CD023689A6912F068
:100B8000200F19D1B5F1FF3FF7D0FFF76DFD801BA6
:100B9000A84201D8002DF0D1636C43F020036364B8
:100BA000202384F84130002384F8423084F8403018
:100BB000012020E000201EE01022DA6123682025B9
:100BC000DD612046FFF7A4FF2268536823F0FF731E
:100BD00023F48B3323F4FF7323F001035360636C1E
:100BE00043F00403636484F84150002384F84230E6
:100BF00084F84030012070BD70B504460D4616469D
:100C000023689B6913F0020F1DD132462946204606
:100C1000FFF7AAFFC8B9B5F1FF3FF1D0FFF724FDF8
:100C2000801BA84201D8002DEAD1636C43F0200359
:100C30006364202384F84130002384F8423084F830
:100C40004030012000E0002070BD0120FCE7F8B535
:100C500005460F4616461C462B689B6937EA030378
:100C60000CBF01230023B34218D1B4F1FF3FF3D0EE
:100C7000FFF7FAFC069BC01AA04201D8002CEBD16A
:100C80006B6C43F020036B64202385F84130002314
:100C900085F8423085F84030012000E00020F8BDA2
:100CA00070B582B0044616461D46184B00934FF0AF
:100CB0008073EAB2FFF73DFF079A06992046FFF7D7
:100CC0009BFFE8B9012D0ED12368F6B29E62079B07
:100CD0000093069B002280212046FFF7B8FF0346C1
:100CE00078B101230DE02368320A9A62079A0699C7
:100CF0002046FFF781FF38B92368F6B29E62E6E727
:100D00000123184602B070BD0123FAE700200080DD
:100D100070B582B0044616461D46184B009300235A
:100D2000EAB2FFF706FF079A06992046FFF764FF2D
:100D3000E8B9012D0ED12368F6B29E62079B00939D
:100D4000069B002240212046FFF781FF034678B131
:100D500001230DE02368320A9A62079A0699204619
:100D6000FFF74AFF38B92368F6B29E62E6E701232F
:100D7000184602B070BD0123FAE700BF00200080D2
:100D800070B505460C4616462B689B6913F0200F7C
:100D90001AD1324621462846FFF7E6FEB0B9FFF7E2
:100DA00063FC801BA04201D8002CEDD16B6C43F09A
:100DB00020036B64202385F84130002385F84230FE
:100DC00085F84030012070BD0020FCE70120FAE7E3
:100DD000002857D010B5044690F84130002B41D080
:100DE000242384F841302268136823F00103136040
:100DF0006368226823F0706313612268936823F4A8
:100E000000439360E368012B31D0A368226843F468
:100E100004439360E368022B2FD0226851681A4B79
:100E20000B4353602268D36823F40043D3602369E3
:100E300062691343A169226843EA0123D360E3692D
:100E4000216A22680B4313602268136843F0010390
:100E5000136000206064202384F84130206384F80C
:100E6000420010BD80F8403003F02CFCB8E7A368C6
:100E7000226843F400439360CCE723684FF4006298
:100E80005A60CAE701207047008000022DE9F04750
:100E900082B0BDF82C6090F84150EDB2202D40F0AA
:100EA000BF80B6FA86F56D090A9C002C08BF0125A3
:100EB000D5B990F84040012C00F0B7809846914693
:100EC0000D4604464FF0010A80F840A0FFF7CCFB26
:100ED00007460090192352464FF400412046FFF781
:100EE000B6FE30B101239CE04FF40073436401234C
:100EF00097E0212384F84130402384F842300023D6
:100F000063640A9A62626685636301970C9B00932F
:100F100043464A4629462046FFF7C2FE70B9638D14
:100F20009BB2FF2B0FD9FF222285002300934FF0A5
:100F3000807329462046FFF7FCFD21E0002384F85A
:100F4000403053466DE0628D92B2228500230093BB
:100F50004FF00073D2B229462046FFF7EAFD0FE0BA
:100F6000628D92B22285002300934FF00073D2B2BB
:100F700029462046FFF7DDFD638D9BB2002B32D062
:100F80003A460C992046FFF737FE00284FD1626A97
:100F9000236812789A62636A01336362638D013B4E
:100FA0009BB26385238D013B9BB22385628D92B2F8
:100FB000002AE1D0002BDFD100970C9B002280217A
:100FC0002046FFF744FEA0BB638D9BB2FF2BC7D921
:100FD000FF222285002300934FF08073294620468C
:100FE000FFF7A7FDC8E73A460C992046FFF7C8FE71
:100FF000034600BB22682021D1612068426822F0AC
:10100000FF7222F48B3222F4FF7222F0010242605E
:1010100084F84110002284F8422084F8402000E047
:101020000223184602B0BDE8F0870223F9E7012346
:10103000F7E70123F5E70123F3E700002DE9F04787
:1010400082B0BDF82C6090F84150EDB2202D40F0F8
:10105000C180B6FA86F56D090A9C002C08BF0125EF
:10106000D5B990F84040012C00F0B98098469146DF
:101070000D4604464FF0010A80F840A0FFF7F4FA4D
:1010800007460090192352464FF400412046FFF7CF
:10109000DEFD30B101239EE04FF400734364012371
:1010A00099E0222384F84130402384F84230002321
:1010B00063640A9A62626685636301970C9B00937E
:1010C00043464A4629462046FFF722FE70B9638D03
:1010D0009BB2FF2B0FD9FF222285454B00934FF087
:1010E000807329462046FFF724FD21E0002384F881
:1010F000403053466FE0628D92B222853C4B0093A4
:101100004FF00073D2B229462046FFF712FD0FE0E0
:10111000628D92B22285002300934FF00073D2B209
:1011200029462046FFF705FD638D9BB2002B34D086
:1011300000970C9B002204212046FFF788FD002821
:101140004FD123685A6A636A1A70636A0133636213
:10115000238D013B9BB22385628D013A92B2628559
:10116000628D92B2002ADFD0002BDDD100970C9B5C
:10117000002280212046FFF76AFDA0BB638D9BB251
:10118000FF2BC5D9FF222285002300934FF08073E7
:1011900029462046FFF7CDFCC6E73A460C99204683
:1011A000FFF7EEFD034600BB22682021D1612068D5
:1011B000426822F0FF7222F48B3222F4FF7222F096
:1011C0000102426084F84110002284F8422084F831
:1011D000402000E00223184602B0BDE8F087022359
:1011E000F9E70123F7E70123F5E70123F3E700BF60
:1011F0000024008090F84130DBB2202B24D190F8FD
:101200004030012B22D0012380F84030242380F885
:1012100041300268136823F0010313600268136809
:1012200023F4805313600268136819431160026845
:10123000136843F001031360202380F8413000233A
:1012400080F84030184670470220704702207047EF
:1012500090F84130DBB2202B22D190F84030012BA6
:1012600020D0012380F84030242380F841300268E8
:10127000136823F0010313600268136823F470639A
:1012800043EA012111600268136843F0010313600F
:10129000202380F84130002380F840301846704702
:1012A0000220704702207047002800F0128270B5BB
:1012B00082B00446036813F0010F29D0A24B9B684B
:1012C00003F00C03042B1AD09F4B9B6803F00C0314
:1012D000082B0FD06368B3F5803F40D0002B54D16A
:1012E000994B1A6822F480321A601A6822F480221C
:1012F0001A6039E0944B5B6813F4800FEAD0924B8C
:101300001B6813F4003F03D06368002B00F0E381F7
:10131000236813F0020F75D08B4B9B6813F00C0FF2
:101320005ED0894B9B6803F00C03082B53D0E36815
:10133000002B00F08A80844A136843F00103136095
:10134000FFF792F90546804B1B6813F0020F73D12B
:10135000FFF78AF9401B0228F5D90320BEE17A4A3B
:10136000136843F48033136063682BB3FFF77CF991
:101370000546754B1B6813F4003FC9D1FFF774F99C
:10138000401B6428F5D90320A8E1B3F5A02F09D0AC
:101390006D4B1A6822F480321A601A6822F4802297
:1013A0001A60E1E7684B1A6842F480221A601A68F2
:1013B00042F480321A60D7E7FFF756F90546624BD0
:1013C0001B6813F4003FA3D0FFF74EF9401B6428BD
:1013D000F5D9032082E15C4B5B6813F4800FA6D142
:1013E000594B1B6813F0020F04D0E368012B01D0A6
:1013F000012073E1544A136823F0F803216943EA9A
:10140000C1031360236813F0080F46D0636983B3E8
:101410004D4A536F43F001035367FFF725F9054623
:10142000494B5B6F13F0020F37D1FFF71DF9401BDB
:101430000228F5D9032051E1434A136823F0F80349
:10144000216943EAC1031360DCE73F4A136823F0D4
:1014500001031360FFF708F905463B4B1B6813F0C7
:10146000020FCFD0FFF700F9401B0228F5D9032067
:1014700034E1354A536F23F001035367FFF7F4F863
:101480000546314B5B6F13F0020F06D0FFF7ECF807
:10149000401B0228F5D9032020E1236813F0040F34
:1014A0007ED0294B1B6C13F0805F1ED1264B1A6C2B
:1014B00042F080521A641B6C03F080530193019B2D
:1014C0000125224B1B6813F4807F10D0A368012BE9
:1014D00021D0002B3CD11C4B1A6F22F001021A675D
:1014E0001A6F22F004021A671AE00025E9E7174A8A
:1014F000136843F480731360FFF7B6F80646134B86
:101500001B6813F4807FE1D1FFF7AEF8801B6428DD
:10151000F5D90320E2E00C4A136F43F0010313678F
:10152000A3685BB3FFF7A0F80646074B1B6F13F0E9
:10153000020F34D1FFF798F8801B41F288339842AC
:10154000F3D90320CAE000BF003802400070004019
:10155000052B09D0644B1A6F22F001021A671A6F2B
:1015600022F004021A67DBE75F4B1A6F42F00402B5
:101570001A671A6F42F001021A67D1E7FFF774F891
:101580000646594B1B6F13F0020F08D0FFF76CF89B
:10159000801B41F288339842F3D903209EE0FDB9C5
:1015A000A369002B00F099804F4A926802F00C0268
:1015B000082A59D0022B19D04B4A136823F08073A4
:1015C0001360FFF751F80446474B1B6813F0007F88
:1015D00048D0FFF749F8001B0228F5D903207DE029
:1015E000414A136C23F080531364D9E73E4A1368D1
:1015F00023F080731360FFF737F805463A4B1B68FA
:1016000013F0007F06D0FFF72FF8401B0228F5D912
:10161000032063E0E369226A1343626A43EA8213A8
:10162000A26A5208013A43EA0243E26A43EA0263C9
:10163000226B43EA02732C4A5360136843F08073B1
:101640001360FFF711F80446274B1B6813F0007F67
:1016500006D1FFF709F8001B0228F5D903203DE069
:1016600000203BE0002039E01F4A5268012B37D0B0
:1016700002F48003E1698B4201D001202EE002F0E8
:101680003F03216A8B4201D0012027E0616A47F6BF
:10169000C0731340B3EB811F01D001201EE002F4A0
:1016A0004031A36A5B08013BB1EB034F01D001203D
:1016B00014E002F07063E16AB3EB016F01D0012026
:1016C0000CE002F0E042236BB2EB037F0AD0012072
:1016D00004E001207047012000E0002002B070BD4E
:1016E0000120FBE70020F9E700380240264B9B6809
:1016F00003F00C03042B44D0082B01D0234870477F
:101700002DE9F04B204B5A6802F03F025B6813F45E
:10171000800F13D01C4B5968C1F3881100231C485B
:10172000A1FB0001FEF78CFD174B5B68C3F301437F
:1017300001335B00B0FBF3F0BDE8F08B124B5B684C
:10174000C3F388131E4600275C010025E41A65EBED
:101750000705A90141EA9461A001001B61EB0501A5
:10176000CB0043EA5073C400A01943EB07018B027E
:1017700043EA90538402204619460023FEF760FD99
:10178000D2E70348704700BF003802400024F4004D
:1017900040787D01002800F0A38070B50446524BCC
:1017A0001B6803F00F038B420CD24F4A136823F0DF
:1017B0000F030B431360136803F00F038B4201D038
:1017C000012070BD236813F0020F17D013F0040F2F
:1017D00004D0464A936843F4E0539360236813F0BF
:1017E000080F04D0414A936843F4604393603F4A32
:1017F000936823F0F003A068034393600D462368C9
:1018000013F0010F31D06368012B20D0022B25D0BB
:10181000364A126812F0020F64D034498A6822F006
:10182000030213438B60FEF71FFF06462F4B9B6896
:1018300003F00C036268B3EB820F16D0FEF714FFBF
:10184000801B41F288339842F0D90320B9E7274A38
:10185000126812F4003FE0D10120B2E7234A126877
:1018600012F0007FD9D10120ABE71F4B1B6803F0BA
:101870000F03AB420CD91C4A136823F00F032B4310
:101880001360136803F00F03AB4201D0012098E707
:10189000236813F0040F06D0144A936823F4E0532E
:1018A000E1680B439360236813F0080F07D00F4AD9
:1018B000936823F46043216943EAC1039360FFF70F
:1018C00015FF0A4B9B68C3F30313094AD35CD84046
:1018D000084B1860084B1868FEF78AFE002070E776
:1018E0000120704701206CE7003C024000380240B4
:1018F0003C8A00080800002004000020014B186802
:10190000704700BF0800002008B5FFF7F7FF044B41
:101910009B68C3F38223034AD35CD84008BD00BF51
:10192000003802404C8A000808B5FFF7E7FF044B77
:101930009B68C3F34233034AD35CD84008BD00BF61
:10194000003802404C8A0008F0B583B004460368B2
:1019500013F0010F0CD0B54B9A6822F400029A6084
:101960009A68416B0A439A60436BC3B1002600E05A
:101970000026236813F4002F15D0AC4AD2F88C301F
:1019800023F44013E16B0B43C2F88C30E36BB3F5E7
:10199000801F06D0002B00F04581002504E00126C1
:1019A000E7E70126F6E70025236813F4801F0FD030
:1019B0009E4AD2F88C3023F44003216C0B43C2F8CA
:1019C0008C30236CB3F5800F00F02E8103B9012514
:1019D000236813F0807F00D0012613F0200F40F021
:1019E0002781236813F0100F0CD0904BD3F88C2074
:1019F00022F08072C3F88C20D3F88C20A16B0A43AC
:101A0000C3F88C20236813F4804F08D0874AD2F89B
:101A1000903023F44033616E0B43C2F8903023685A
:101A200013F4004F08D0814AD2F8903023F44023B9
:101A3000A16E0B43C2F89030236813F4803F08D0A6
:101A40007A4AD2F8903023F44013E16E0B43C2F887
:101A50009030236813F4003F08D0744AD2F89030D5
:101A600023F44003216F0B43C2F89030236813F036
:101A7000400F08D06D4AD2F8903023F00303616C18
:101A80000B43C2F89030236813F0800F08D0674AE8
:101A9000D2F8903023F00C03A16C0B43C2F89030C5
:101AA000236813F4807F08D0604AD2F8903023F086
:101AB0003003E16C0B43C2F89030236813F4007FCD
:101AC00008D05A4AD2F8903023F0C003216D0B435E
:101AD000C2F89030236813F4806F08D0534AD2F8CC
:101AE000903023F44073616D0B43C2F8903023684B
:101AF00013F4006F08D04D4AD2F8903023F44063BD
:101B0000A16D0B43C2F89030236813F4805F08D0B6
:101B1000464AD2F8903023F44053E16D0B43C2F8AB
:101B20009030236813F4005F08D0404AD2F8903018
:101B300023F44043216E0B43C2F89030236813F422
:101B4000800F08D0394AD2F8903023F08063A16F1B
:101B50000B43C2F89030236813F4001F0DD0334AB2
:101B6000D2F8903023F00063E16F0B43C2F890305D
:101B7000E36FB3F1006F00F0C180236813F0080F2A
:101B800000D0012513F4802F08D0284AD2F89030D5
:101B900023F04073616F0B43C2F89030236813F455
:101BA000000F09D0214AD2F8903023F08053D4F8A6
:101BB00080100B43C2F89030236813F0806F09D077
:101BC0001A4AD2F8903023F00053D4F884100B4313
:101BD000C2F89030236813F0006F09D0134AD2F88E
:101BE0008C3023F00073D4F888100B43C2F88C308B
:101BF000236813F0805F09D00C4AD2F88C3023F0B0
:101C00008063D4F88C100B43C2F88C30002E77D14F
:101C10002368B3F1007F73D0002D40F004810020D1
:101C200003B0F0BD0125BFE60126CFE60038024033
:101C3000B74B1A6C42F080521A641B6C03F080534D
:101C40000193019BB34A136843F480731360FEF75A
:101C50000BFD0746AF4B1B6813F4807F06D1FEF7E0
:101C600003FDC01B6428F5D90320D9E7A84B1B6FDF
:101C700013F4407315D0226B02F440729A4210D0D4
:101C8000A34B1A6F22F44072196F41F48031196727
:101C9000196F21F4803119671A671B6F13F0010F58
:101CA00012D1236B03F44072B2F5407F1DD0984AE5
:101CB000936823F4F813936095490B6F226BC2F37A
:101CC0000B0213430B678CE6FEF7CEFC0746904BE6
:101CD0001B6F13F0020FE4D1FEF7C6FCC01B41F2EC
:101CE00088339842F3D903209AE78948826822F41E
:101CF000F812894919400A438260DDE701253CE773
:101D0000834A136823F080631360FEF7ADFC064638
:101D10007F4B1B6813F0006F06D0FEF7A5FC801BFD
:101D20006428F5D903207BE7236813F0010F13D053
:101D3000636B8BB9764AD2F88430D2F8841060682D
:101D400003F4403343EA801301F070610B43A16850
:101D500043EA0173C2F88430236813F4002F03D0E0
:101D6000E26BB2F5801F06D013F4801F1ED0236CE7
:101D7000B3F5800F1AD1664AD2F88430D2F88410B5
:101D8000606803F4403343EA8013E06843EA006389
:101D900001F0E0410B43C2F88430D2F88C3023F0DC
:101DA0001F03616A01390B43C2F88C30236813F0BA
:101DB000807F11D0564AD2F88400D2F88410666829
:101DC00023691B0443EA861300F07060034301F0AB
:101DD000E0410B43C2F88430236813F0007F0DD03C
:101DE000626823691B0443EA8213E26843EA0263E0
:101DF000A26843EA0273464AC2F88430444A136830
:101E000043F080631360FEF72FFC0646404B1B68CF
:101E100013F0006F7FF400AFFEF726FC801B6428F0
:101E2000F4D90320FCE63A4A136823F08053136088
:101E3000FEF71AFC0546364B1B6813F0005F06D010
:101E4000FEF712FC401B6428F5D90320E8E623685E
:101E500013F4002F01D0E26B22B113F4801F1DD0C8
:101E6000236CDBB92A4AD2F88830D2F8881060692E
:101E700003F4403343EA8013A06943EA006301F0AE
:101E8000E0410B43C2F88830D2F88C3023F4F85389
:101E9000A16A013943EA0123C2F88C30236813F4A4
:101EA000001F03D0E36FB3F1006F37D0236813F046
:101EB000080F19D0164AD2F88810D2F88830606915
:101EC00003F4403343EA801301F070610B43E1698E
:101ED00043EA0173C2F88830D2F88C3023F44033DF
:101EE000E16A0B43C2F88C30094A136843F080530F
:101EF0001360FEF7B9FB0446054B1B6813F0005F47
:101F00001FD1FEF7B1FB001B6428F5D9032087E63B
:101F10000038024000700040FFFCFF0F0A4AD2F870
:101F20008800D2F888106569236A1B0443EA851388
:101F300000F07060034301F0E0410B43C2F88830C9
:101F4000B4E700206CE600BF0038024038B5044614
:101F50000268D36823F0A003D360FEF785FB054633
:101F60002368DB6813F0200F07D1FEF77DFB401BD1
:101F7000B0F57A7FF4D9032000E0002038BD38B5F1
:101F80000368DA6812F0400F01D0002038BD044623
:101F90004FF0FF32DA60FEF767FB05462368DB6827
:101FA00013F0400F07D1FEF75FFB401BB0F57A7FBF
:101FB000F4D90320EAE70020E8E7002302E0013338
:101FC0000A38C0B20928FAD81B01DBB2184370479F
:101FD000F8B5037F012B76D00D4604460123037725
:101FE00002234377002A44D103689B6813F0400F13
:101FF00001D100230B732878FFF7DFFF0604687810
:10200000FFF7DBFF46EA0026A878FFF7D6FF064376
:10201000287B46EA00462368CA225A622368532274
:102020005A622046FFF7ABFF0746002833D12268EB
:10203000264B334013602268936823F48023936017
:1020400021688B682A696869024313438B602268A0
:10205000D36823F08003D36023689B6813F0200FBC
:1020600023D02368FF225A6201236377002323775A
:1020700019E003689B6813F0400F01D100230B7334
:1020800028786E78360246EA0046A8780643287B10
:1020900046EA0046BFE72368FF225A6204236377BB
:1020A0000023237701273846F8BD2046FFF74EFF6F
:1020B0000028D6D02368FF225A62042363770023C6
:1020C00023770127EFE70227EDE700BF7F7F7F003F
:1020D000030903EB83035A0000F00F001044C0B261
:1020E0007047000070B503689B6A4B6003681B690A
:1020F000C3F30E038B60036818680F4D05402C0C6A
:1021000004F03F000870C5F306264E7005F07F0509
:102110008D7004F040040C735AB90C46FFF7D8FFD9
:1021200020703046FFF7D4FF60702846FFF7D0FFDD
:10213000A070002070BD00BF7F7F7F0070B5036876
:1021400058680E4B0340180CC870C3F304264E7039
:1021500003F03F058D70C3F342330B705AB90C4640
:10216000FFF7B6FFE0703046FFF7B2FF6070284619
:10217000FFF7AEFFA070002070BD00BF3FFFFF0063
:10218000F8B505460F4616461C462B689B6837EA8D
:1021900003030CBF01230023B34237D0B4F1FF3F48
:1021A000F3D0FEF761FA069BC01AA04201D2002CC0
:1021B000EBD12A68536823F0E00353606B68B3F5F2
:1021C000827F0BD0AB6AB3F5005F14D0012385F892
:1021D0005D30002385F85C30032018E0AB68B3F570
:1021E000806F18BFB3F5004FECD12A68136823F055
:1021F00040031360E6E72A68136823F40053136072
:102200002A68136843F400531360DFE70020F8BD29
:10221000F8B507460D4614461E4602E0B6F1FF3FEC
:102220000BD13A6893682B40A3423BD0B5F5C06F01
:1022300008BF002CF2D1137BF0E7FEF715FA069BDE
:10224000C01AB04201D2002EEBD13A68536823F095
:10225000E00353607B68B3F5827F0BD0BB6AB3F5B4
:10226000005F14D0012387F85D30002387F85C30CD
:10227000032018E0BB68B3F5806F18BFB3F5004FBB
:10228000ECD13A68136823F040031360E6E73A683C
:10229000136823F4005313603A68136843F400533F
:1022A0001360DFE70020F8BD70B582B004460D462C
:1022B000164600920B4600224FF4C051FFF7A8FFCC
:1022C000B8B900962B46002280212046FFF758FF20
:1022D000B8B900962B4600224FF4C0612046FFF7A4
:1022E00097FF034650B1236E43F020032366032378
:1022F00004E0236E43F0200323660323184602B054
:1023000070BD236E43F0200323660323F6E7002805
:1023100058D010B504460023836290F85D30002B3E
:1023200045D0022384F85D302268136823F040030F
:102330001360E368B3F5E06F3ED90022B3F5706F28
:1023400018BFB3F5E06F01D00021A162216B21B964
:10235000B3F5E06F33D9022323636368A1680B43AD
:1023600021690B4361690B43A16901F400710B43BF
:10237000E1690B43216A0B43A06A216803430B60A8
:10238000638B03F00403616A0B43616B0B43E168E9
:102390000B43216813434B602268D36923F4006325
:1023A000D36100202066012384F85D3010BD80F8E1
:1023B0005C3002F0E5F9B4E74FF48052BEE7012348
:1023C0002363CAE7012070472DE9F843DDF8208038
:1023D00090F85C40012C00F05D811D4617460E46CA
:1023E0000446012380F85C30FEF73EF9814694F8FC
:1023F0005D00C0B26368012814D0B3F5827F09D0B4
:102400000223012284F85D20002284F85C20184613
:10241000BDE8F883A368002B40F03081042801D088
:102420000223EEE7B7FA87F35B09002E08BF01230A
:10243000002B40F02581002D00F0248194F85D30C0
:10244000DBB2042B02D0052384F85D300023236621
:102450002764A4F84650A4F84450A663E587A587EE
:10246000E3642365E368B3F5E06F01D8012D22D959
:102470002268536823F48053536023681A6812F06B
:10248000400F03D11A6842F040021A60E368B3F5C6
:10249000E06F56D963680BB1012D0AD1A26B236896
:1024A0001288DA60A36B0233A363E38F013B9BB214
:1024B000E387012525E02268536843F48053536085
:1024C000DBE723689A6812F0010F10D0B4F84620B9
:1024D00092B262B1DA68236C1A80236C02332364EF
:1024E000B4F84630013B9BB2A4F846300125FEF714
:1024F000BBF8A0EB0900404503D3B8F1FF3F40F023
:10250000C380E38F9BB22BB9B4F846309BB2002B4B
:1025100000F0A78023689A6812F0020FD1D0E28FF2
:1025200092B2002ACDD0002DCBD0A26B1288DA60F7
:10253000A36B0233A363E38F013B9BB2E3870025C8
:10254000BFE763680BB1012D0ED1E38F9BB2012B66
:102550000CD9A26B23681288DA60A36B0233A363E1
:10256000E38F023B9BB2E387012547E0A26B236820
:1025700012781A73A36B0133A363E38F013B9BB201
:10258000E387F1E7E28F92B2012A0BD9A26B12889E
:10259000DA60A36B0233A363E38F023B9BB2E38752
:1025A00000253CE0A26B12781A73A36B0133A3637E
:1025B000E38F013B9BB2E387002530E0226853683C
:1025C00043F48053536001250CE0226C1B7B137095
:1025D000236C01332364B4F84630013B9BB2A4F86A
:1025E00046300125FEF740F8A0EB0900404502D334
:1025F000B8F1FF3F4AD1B8F1000F49D0E38F9BB249
:102600001BB9B4F846309BB25BB323689A6812F0EA
:10261000020F04D0E28F92B20AB1002DB2D123682A
:102620009A6812F0010FDDD0B4F8462092B2002A69
:10263000D8D0B4F8462092B2012AC6D9DA68236C01
:102640001A80236C02332364B4F84630023B9BB2F9
:10265000A4F84630B4F846309BB2012BAED9012520
:10266000C0E74A4641462046FFF71EFE03460028C3
:102670003FF4C7AE202323660123C2E60223C0E64F
:102680000123BEE60123BCE60323BAE60323B8E632
:102690000323B6E60223BAE60268136823F49073B4
:1026A00013600268936823F001039360202383671B
:1026B0000023036670470000836F202B5ED1B2FABF
:1026C00082F35B09002908BF0123002B58D190F841
:1026D0007030012B56D0012380F870304165A0F88E
:1026E0005820A0F85A20002303668368B3F5805F62
:1026F00006D0A3B9036973B9FF23A0F85C3014E0D6
:10270000036923B940F2FF13A0F85C300DE0FF230A
:10271000A0F85C3009E07F23A0F85C3005E0B3F15D
:10272000805F1BD00023A0F85C300023C367222306
:1027300083670268936843F0010393608368B3F58D
:10274000805F15D0104B0366002380F8703001685D
:102750000A6842F490720A601846704703691BB910
:102760007F23A0F85C30E0E73F23A0F85C30DCE793
:102770000369002BE6D1054B0366E5E702207047AD
:102780000120704702207047AF2700081128000879
:10279000704708B501680A6822F040020A602022EA
:1027A000426700224266FFF7F3FF08BD704708B595
:1027B000B0F85C30826F222A05D00268936943F03A
:1027C0000803936108BD0268516ADBB2426D0B4099
:1027D0001370436D01334365B0F85A30013B9BB22F
:1027E000A0F85A30B0F85A309BB2002BEAD10268F8
:1027F000136823F4907313600268936823F0010355
:1028000093602023836700230366FFF7CFFFD9E798
:1028100008B5B0F85C20836F222B05D0026893695D
:1028200043F00803936108BD03685B6A416D134080
:102830000B80436D02334365B0F85A30013B9BB2C5
:10284000A0F85A30B0F85A309BB2002BEBD1026896
:10285000136823F4907313600268936823F00103F4
:1028600093602023836700230366FFF79FFFDAE767
:10287000704708B5806B0023A0F85A30A0F852309A
:10288000FFF7F6FF08BD704738B504460168CB690D
:1028900008688D6840F60F021A400CD113F0200F23
:1028A00009D010F0200F06D0236E002B00F0A1807D
:1028B000204698479DE0002A7DD015F0010202D104
:1028C00010F4907F77D013F0010F07D010F4807FC1
:1028D00004D001250D62E16F2943E16713F0020F77
:1028E00007D032B1216802250D62E16F41F0040189
:1028F000E16713F0040F07D032B1216804250D629F
:10290000E16F41F00201E16713F0080F09D010F008
:10291000200F00D12AB1226808211162E26F0A4318
:10292000E26713F4006F0AD010F0806F07D02268BE
:102930004FF400611162E26F42F02002E267E26F41
:10294000002A56D013F0200F06D010F0200F03D02D
:10295000236E0BB120469847E26F23689B6813F003
:10296000400F02D112F0280F1FD02046FFF794FE2F
:1029700023689A6812F0400F13D09A6822F0400240
:102980009A60E36E4BB11D4A1A65E06EFDF7B8FF21
:1029900078B3E06E036D98472BE02046FFF768FFA1
:1029A00027E02046FFF764FF23E02046FFF760FFA3
:1029B0000023E3671DE013F4801F02D015F4800F9D
:1029C0000AD113F0800F0ED010F0800F0BD0636E81
:1029D0007BB1204698470CE04FF480130B622046F1
:1029E000FFF751FF05E013F0400F02D010F0400F49
:1029F00000D138BD2046FFF7CCFEFAE77328000867
:102A000010B5044683680269134342691343C269DF
:102A1000134301680868994A024013430B60226817
:102A2000536823F44053E1680B435360A269236A5F
:102A30001A4321688B6823F4306313438B60236847
:102A40008F4A934218D08F4A934228D08E4A93429D
:102A50003DD08E4A934250D08D4A934262D08D4AE7
:102A6000934277D08C4A934200F08C808B4A9342F9
:102A700000F0A0801023B6E0894BD3F8903003F02B
:102A80000303032B09D8DFE803F00204AD0601239A
:102A9000A9E00423A7E00823A5E01023A3E0804BCE
:102AA000D3F8903003F00C030C2B0ED8DFE803F0C2
:102AB000070D0D0D090D0D0DA90D0D0D0B000023BA
:102AC00091E004238FE008238DE010238BE0744B0A
:102AD000D3F8903003F03003102B0AD006D9202B06
:102AE00000F09180302B06D108237CE01BB9002335
:102AF00079E0042377E0102375E0694BD3F8903038
:102B000003F0C003402B09D005D9802B7DD0C02B0A
:102B100006D1082367E01BB9002364E0042362E0C8
:102B2000102360E05E4BD3F8903003F44073B3F5AC
:102B3000807F0BD007D9B3F5007F68D0B3F5407F15
:102B400006D108234FE01BB900234CE004234AE0E0
:102B5000102348E0524BD3F8903003F44063B3F5B0
:102B6000806F0BD007D9B3F5006F52D0B3F5406F2B
:102B700006D1082337E01BB9012334E0042332E0F7
:102B8000102330E0464BD3F8903003F44053B3F5B4
:102B9000805F0BD007D9B3F5005F3CD0B3F5405F41
:102BA00006D108231FE01BB900231CE004231AE010
:102BB000102318E03A4BD3F8903003F44043B3F5B8
:102BC000804F0BD007D9B3F5004F26D0B3F5404F57
:102BD00006D1082307E01BB9002304E0042302E028
:102BE000102300E00223E269B2F5004F17D0082B52
:102BF00000F2B380DFE803F0768B95B19EB1B1B1FE
:102C0000A8000223EFE70223EDE70223EBE702230C
:102C1000E9E70223E7E70223E5E70223E3E7082BDE
:102C20005DD8DFE803F0051F3F5C485C5C5C530047
:102C3000FEF76AFE6268530803EB4003B3FBF2F34E
:102C40009BB20020A3F110014FF6EF72914200F207
:102C500087809AB222F00F02C3F342031343226823
:102C6000D36050E0FEF760FE6268530803EB400358
:102C7000B3FBF2F39BB20020E4E700BFF369FFEF80
:102C8000001001400044004000480040004C00405B
:102C9000005000400014014000780040007C0040DB
:102CA000003802406268304B03EB5203B3FBF2F38F
:102CB0009BB20020C6E7FEF719FD6268530803EBDC
:102CC0004003B3FBF2F39BB20020BBE762685308FA
:102CD00003F58033B3FBF2F39BB20020B2E701208F
:102CE0000023AFE7FEF710FE626800EB5203B3FB70
:102CF000F2F39BB20020A3F110014FF6EF72914264
:102D000030D82268D36000232366636610BDFEF7C7
:102D10000BFE626800EB5203B3FBF2F39BB20020A0
:102D2000E9E76268114B03EB5203B3FBF2F39BB28A
:102D30000020E0E7FEF7DAFC626800EB5203B3FB29
:102D4000F2F39BB20020D6E76268530803F5004314
:102D5000B3FBF2F39BB20020CDE701200023CAE7CA
:102D60000120D0E70120CEE70048E8010024F4006C
:102D7000436A13F0010F06D00268536823F400334E
:102D8000816A0B435360436A13F0020F06D0026856
:102D9000536823F48033C16A0B435360436A13F0D2
:102DA000040F06D00268536823F48023016B0B43A1
:102DB0005360436A13F0080F06D00268536823F487
:102DC0000043416B0B435360436A13F0100F06D06E
:102DD0000268936823F48053816B0B439360436ACA
:102DE00013F0200F06D00268936823F40053C16BE0
:102DF0000B439360436A13F0400F0AD00268536894
:102E000023F48013016C0B435360036CB3F5801FF4
:102E10000BD0436A13F0800F06D00268536823F486
:102E20000023816C0B43536070470268536823F49E
:102E3000C003416C0B435360EBE72DE9F0410446BE
:102E40000F4616469846069D2368DB6937EA03035A
:102E50000CBF01230023B3423AD1B5F1FF3FF3D0B9
:102E6000FDF702FCA0EB0800A8421FD8F5B12368CB
:102E70001A6812F0040FE7D0DA6912F4006FE3D099
:102E80004FF400621A622268136823F4D07313604F
:102E90002268936823F00103936020236367A3678C
:102EA000E367002384F87030032012E0226813687F
:102EB00023F4D07313602268936823F001039360B6
:102EC00020236367A367002384F87030032000E0A9
:102ED0000020BDE8F08130B583B004460023C3670D
:102EE000FDF7C2FB054623681B6813F0080F0CD1E1
:102EF00023681B6813F0040F15D120236367A367B1
:102F0000002084F8700003B030BD6FF07E43009362
:102F1000034600224FF400112046FFF78EFF0028E1
:102F2000E6D00320EFE76FF07E4300932B460022AC
:102F30004FF480012046FFF780FF0028DDD00320FA
:102F4000E1E768B310B50446436F03B32423636716
:102F50002268136823F0010313602046FFF750FD39
:102F6000012813D0636ABBB92268536823F49043E5
:102F700053602268936823F02A03936022681368E1
:102F800043F0010313602046FFF7A5FF10BD80F852
:102F9000703001F099FCD9E72046FFF7E9FEE3E73E
:102FA0000120704710B44FF6FF7209E003785340D8
:102FB000DBB2074931F8133083EA1222214601308F
:102FC0004C1E0029F2D1D04380B25DF8044B70470B
:102FD000C88300082DE9F84305460E4691461F4672
:102FE000002405E0335D5B002B700134A4B2013591
:102FF0000621304602F066FB8442F3D304E040230E
:103000002B700134A4B20135052CF8D94FEA4909D7
:1030100009F01E0905F1010849F060032B70002436
:1030200007E0335D5B0088F800300134A4B208F19A
:1030300001080621384602F045FB8442F1D306E040
:10304000402388F800300134A4B208F10108052CAF
:10305000F6D949F0610988F800900E20BDE8F883A0
:10306000B2F5807F01D9002070472DE9F8434FF079
:103070007E34046044608460C460099C1C2C18BFCA
:103080000E2C02D00020BDE8F8831F461646884665
:10309000054600F1100922460899484601F046FE0F
:1030A000099B03F110040B9B013B012B01D900206C
:1030B000E9E70B9A0AA9281901F038FE0B9B1C447A
:1030C000032F14BF00230123002F14BF1F46012725
:1030D00017B1F0232B55013432464146281901F02F
:1030E00025FE3444A4F110014846FFF75BFF631C42
:1030F0002855A11C000AE8546A184FF07E336B5023
:1031000053609360D36004F11200BCE7F0B506464B
:103110008C4600273C4608E006EB040E1B4D03CD11
:103120003051CEF80410083401370F2FF4D900279E
:10313000384601E001372C4615491944B7EBC10F59
:1031400014D202EBD701097C07F00705294101F0F1
:10315000010141EA4000C0B2651C315500F01F0179
:103160001F29E7D100207055A51CE3E7002206E0E7
:103170003519064B03CB30516960083401320F2AF0
:10318000F6D9CCF800400120F0BD00BFC88500088A
:10319000E0FFFF1FF0B58DB004460E461746002233
:1031A000059206920792089209920A920B921A4689
:1031B00003B10E22334905AD0023009301F50273DC
:1031C00001F504712846FFF705FF0123039303234C
:1031D0000293019000953A4631462B48FFF740FF95
:1031E0000346002847D02848024604A900F59E70EF
:1031F000FFF78CFF012841D14FF49E720021224835
:1032000001F09FFD00230CE0DD081F4AD11891F862
:103210003C1103F0070001FA00F0515D01435155E4
:103220000133049A9A42EFD812F0070301D0C3F198
:1032300008031A440492154D102300222121284628
:1032400001F0D9F8284601F0E0F8049BDB080E4AAB
:103250002146284601F0E3F8002306E0E15C094A34
:103260000A4492F81422E25401330498C0089842A8
:10327000F4D80DB0F0BD4FF0FF30FAE74FF0FF305B
:10328000F7E700BFC8830008140A0020D41A002002
:1032900030B589B00D46002307930693B0F53C5F27
:1032A00046D3AF238DF81C308DF81D000324002277
:1032B00010212248FDF726FC214B1B68214AA2FB66
:1032C00003239B0C03EB83035A0004920023059312
:1032D000059B01330593059A049B9A42F8D341F26A
:1032E00088330093234606AA07A91748FFF76CF80E
:1032F000134B1B68134AA2FB03239B0C9B000293F6
:1033000000230393039B01330393039A029B9A4286
:10331000F8D3012210210948FDF7F4FB013C08AB6A
:103320001C4414F8083C2B709DF8180009B030BDFF
:1033300040F080008DF81C000224B8E70000024035
:103340000800002083DE1B43C41F002030B585B079
:1033500000230293B0F53C5F1CD28DF80C008DF871
:103360000D100225104C002210212046FDF7CAFB4B
:1033700041F2883300932B4602AA03A90B48FFF7BA
:1033800023F8012210212046FDF7BCFB9DF8080020
:1033900005B030BD2F238DF80C308DF80D008DF861
:1033A0000E100325DEE700BF00000240C41F00200E
:1033B00000B587B08DF81700002210211448FDF7E2
:1033C000A1FB144B1B68144AA2FB03239B0C03EBC9
:1033D0008303039300230493049B01330493049A0F
:1033E000039B9A42F8D341F28833009301230DF1F5
:1033F00016020DF117010948FEF7E6FF0122102120
:103400000348FDF77FFB9DF8160007B05DF804FB4D
:10341000000002400800002083DE1B43C41F002080
:1034200030B585B00D461446184B7F2103F8011BBB
:103430000146184601F07AFC002210211448FDF7DD
:1034400061FB144B1B68144AA2FB03239B0C9B00DB
:10345000029300230393039B01330393039A029B7C
:103460009A42F8D3631C4FF47A6200929BB22A46C8
:1034700006490A48FEF7A8FF044601221021044825
:10348000FDF740FB204605B030BD00BF30170020DF
:10349000000002400800002083DE1B43C41F002000
:1034A0002DE9F04F93B002900F4603929B46002205
:1034B00004218248FDF726FB814B00221A70FF2F62
:1034C00013D94023049304992820FFF73FFFF9B252
:1034D0002E20FFF73BFFFDF7C7F805903D4601237F
:1034E00001934FF0000A56463AE000230493EAE7BE
:1034F000BC1BA4EB0A04422C28BF42242246039999
:10350000029B03EB0800FFF78BFF41E0002128201E
:10351000FFF71CFF0023049344E0012313B9A246E4
:1035200046461DE0674B1B68674AA2FB03239B0CC2
:103530004FF47A7202FB03F3099300230A930A9B68
:1035400001330A930A9A099B9A42F8D33620FFF76F
:103550002FFF3B20FFF72CFF6FF00300AAE026446B
:1035600006EB0A08B84544D2584B00221A70019B5A
:10357000002BBDD03C46802F28BF802422460399D3
:103580000298FFF74DFF3520FFF712FF002301934C
:103590002D1B0AEB0409C9F58073AB4202D9049BC9
:1035A000002BB3D1BC4218BFB9F13F0FD7D9002DC2
:1035B000D5D0059EFDF758F8801B5845ADD2414B3C
:1035C0001B68414AA2FB03239B0C4FF4487202FB89
:1035D00003F3079300230893089B01330893089A89
:1035E000079B9A42F8D3394B1B78002BE2D000237B
:1035F00094E7059CFDF738F8001B58453ED2314B47
:103600001B68314AA2FB03239B0C4FF4487202FB58
:1036100003F30B9300230C930C9B01330C930C9A34
:103620000B9B9A42F8D30DF1470142F6D670FFF793
:103630002FFE9DF84730002BDCD1012204211F48CA
:10364000FDF760FA1F4B1B681F4AA2FB03239B0C6C
:103650004FF47A7202FB03F30F9300231093109B35
:1036600001331093109A0F9B9A42F8D33620FFF73C
:103670009FFE3B20FFF79CFE40461BE0114B1B6862
:10368000114AA2FB03239B0C4FF47A7202FB03F353
:103690000D9300230E930E9B01330E930E9A0D9BF8
:1036A0009A42F8D33620FFF783FE3B20FFF780FED7
:1036B0006FF0030013B0BDE8F08F00BF00100240B0
:1036C0003B1900200800002083DE1B433C1900202A
:1036D00030B583B03020FFF76BFE00240EE0094BBD
:1036E00003EBC40233F8345011792846FFF72EFE5D
:1036F0000DF107012846FFF7CBFD01343C2CEED934
:1037000003B030BDDC86000800B585B0002142F66C
:103710002570FFF71BFE0DF10F0142F61570FFF744
:10372000B7FD9DF80F100231C9B242F61570FFF7D0
:103730000DFE3320FFF73CFE0DF1070142F67370DA
:10374000FFF7A6FD9DF80730412BF5D103A942F6FE
:103750002570FFF79DFD0DF10D0142F62370FFF777
:1037600097FD0DF10E0142F61870FFF791FD002153
:1037700042F62570FFF7EAFD9DF80F1042F615702E
:10378000FFF7E4FD3320FFF713FE0DF1070142F6CA
:103790007370FFF77DFD9DF80730412BF5D102A92D
:1037A00042F62570FFF774FD0DF1090142F6237012
:1037B000FFF76EFD0DF10A0142F61870FFF768FD84
:1037C0009DF80C309DF808108B4212D842F62570F7
:1037D000FFF7BCFD9DF8091042F62370FFF7B6FD18
:1037E0009DF80A1042F61870FFF7B0FD05B05DF8BD
:1037F00004FB194642F62570FFF7A8FD9DF80D1051
:1038000042F62370FFF7A2FD9DF80E1042F61870E5
:10381000FFF79CFDEAE7000010B5FCF725FF07EE77
:10382000900AB8EE677B084B83ED007B0021074BC5
:10383000197050242246064801F083FA22460549B1
:103840000548FEF739FF10BDB8170020E81A002020
:10385000001D0020441C002028200020014B0022D5
:103860001A707047401C002038B5054603685B6A33
:10387000DBB2B0F85810B0F85A2092B2914213D08F
:10388000242B1ED00A2B31D0B5F85A2092B2914287
:1038900023D96A6D511C69651370B5F85A30013B24
:1038A0009BB2A5F85A3018E0242BE9D1426D511C87
:1038B00041651370B0F85A30013B9BB2A0F85A3002
:1038C0000BE0A5F85A106A6D511C69651370B5F8C4
:1038D0005A30013B9BB2A5F85A30B5F85A309BB22A
:1038E0001BB9B5F85830A5F85A3038BD6A6D511C6F
:1038F00069651370B5F85A30013B9BB2A5F85A3090
:103900006B6D00241C700C4B01221A700B4B6B6505
:10391000502221460A4801F014FA214605E0074BDF
:103920005A5C074B5A540131C9B24F29F7D9B5F83F
:103930005830A5F85A30D0E7401C0020441C002025
:10394000001D002010B582B002AB03E9030014464D
:10395000FFF762FF012384F86130FFF77FFF00204B
:1039600002B010BD000000002DE9F04F2DED048BDA
:1039700091B00646D0ED067AB8EEE79B90ED085B75
:103980009FED5B7B85EE076B39EE069BD0ED006A01
:10399000B8EEE68B90ED025B85EE076B38EE068B9A
:1039A00003AC31220021204601F0CBF9524F534D98
:1039B00005F1080A8DED009B3A460921504601F0B9
:1039C00003FE96F828302B7405F114098DED008B59
:1039D0003A460921484601F0F7FD337C2B7705F183
:1039E000200BF36C464A0721584601F0EDFD454F88
:1039F000D6E90C23CDE900233A46082105F1280039
:103A000001F0E2FDD6E90E23CDE900233A46052177
:103A100005F1300001F0D8FD05F13408D6E9102396
:103A2000CDE900233A460521404601F0CDFD96ED53
:103A3000127A05F13806B7EEC77A8DED007B3A466B
:103A40000521304601F0C0FD06225946204601F00E
:103A500024FE2046FCF774FD2B4B1F88275251464D
:103A6000204601F0E5FD2046FCF76AFD2752494655
:103A7000204601F0DDFD2046FCF762FD275205F1EE
:103A80002801204601F0D4FD2046FCF759FD2752BD
:103A900004224146204601F0DAFD2046FCF750FDA5
:103AA0002752042205F13001204601F0D0FD2046C6
:103AB000FCF746FD275204223146204601F0C7FD9F
:103AC0003C354FF49E720021284601F03AF94FF43C
:103AD0007A63009300232A463121204601F0AEF894
:103AE00011B0BDEC048BBDE8F08F00BFAFF30080D8
:103AF0000000000000004E40548A0008B817002063
:103B00005C8A0008608A0008648A000808B50368B7
:103B1000DA69C2F340121B68C3F340131A4200D1A2
:103B200008BDFFF7A1FEFBE70F4B93ED005B9FED98
:103B30000C6B85EE067B93ED5E4B84EE065B37EEF9
:103B4000457BB2EE025B87EE056B084B93ED005BA5
:103B500085EE067B80ED107B704700BFAFF30080E1
:103B60000000000000408F40B8170020501D0020CA
:103B700030B587B0C16C002211E01F4C84FB0134CA
:103B8000CB17C3EBA4031D4603EB83035C000B1BA5
:103B900006A901EB820141F8183C29460132052AA9
:103BA000EBDD019B03EB83035A00009B1A44039B4C
:103BB00003EB83035900029B1944059B03EB83032A
:103BC0005D00049C2C44C1EB0115AB009D184FF423
:103BD000616303FB0453094D6D685B1B07EE903A6C
:103BE000B8EEE77B80ED167BD2B2C9B2E0B200F04E
:103BF00069FF07B030BD00BF6766666680190020A8
:103C0000F8B500231E469C461F460CE00CF101054A
:103C1000162404FB0C2C00240CF806405FFA85FCEB
:103C200026460133DBB28B4220D21D46C45C67407E
:103C30002C2CEBD02A2C08D0162505FB0C2506F1E0
:103C4000010EAC555FFA8EF6EBE7162303FB0C234F
:103C500000229A556B1CA91C10220144184402F042
:103C6000EDFBC0B2874203D0012000E00020F8BD88
:103C70000020FCE7000000009FED037B80EE070BB7
:103C8000704700BFAFF30080BC22F8DF4A76E03F08
:103C900038B52DED028B04460D46062201464148FB
:103CA00001F0E9FC48B1062221463F4801F0E3FC5F
:103CB00070B10020BDEC028B38BD04F1A90104F104
:103CC0009A0002F0EDFAFFF7D7FF85ED0E0BF0E753
:103CD00004F1250104F1160002F0F6FAFDEEC07AB7
:103CE000C5ED137A2A6D002A53D004F1A90104F11D
:103CF0009A0002F0E9FAFCEEC07A17EE903A85F8E5
:103D0000603004F1670104F1580002F0C9FAB0EE26
:103D1000408B04F13B0104F12C0002F0C1FA94F84D
:103D20006E302B7494F8423085F82830FDEEC87B55
:103D300017EE903A1D4981FB0302DB17C3EB6213B8
:103D40002B60642202FB03F307EE903AB8EEE77BA8
:103D500038EE477B85ED027BFDEEC07B17EE903A97
:103D600081FB0301DB17C3EB6113AB6102FB03F3C0
:103D700007EE903AB8EEE77B30EE470B85ED080B87
:103D800004F1D50104F1C60002F08AFA85ED0C0BAE
:103D90008FE7074AC2ED007A01232B6500F0E8FEA9
:103DA000A3E700BF688A0008708A00081F85EB51EE
:103DB0008019002038B5002401E00134E4B20F2C52
:103DC00010D8094B1B78012BF7D1FFF747FD074DA2
:103DD0002A4650210648FFF713FF06492846FFF7F9
:103DE00057FFEAE738BD00BF401C0020EC1A002056
:103DF000001D0020981C002010B50446FFF7DAFFD4
:103E000094F86030022B0AD9236843B1A36933B117
:103E100094ED0C7BB5EE407BF1EE10FA01D1002061
:103E200010BD2046FFF7A4FE354B1B78002B39D080
:103E3000334B1B78D3B1334907EE903AB8EEE76BBA
:103E400091ED005B94ED0C4B2F4A92ED007B34EE2C
:103E5000477B06EE057B581C06EE100AB8EEC66BD3
:103E600087EE065B81ED005B82ED004B082B2DD0C9
:103E7000234A1378013313700023236000200021AC
:103E8000C4E902012374A361C4E9080184F828305D
:103E9000C4E90C01C4E90E01C4E91601E36484F825
:103EA0006030BCE7D4E90C01174BC3E90001154BA6
:103EB00000200021C3E90001FCF7D6FB07EE900AC1
:103EC000B8EE677B114B83ED5E7BB1E70C4BFF22B5
:103ED0001A70FCF7C9FB07EE900AB8EE677B0B4B34
:103EE00083ED007B2046FFF71FFE00F069FB00F02A
:103EF000CBFB84ED120A2046FFF736FDB8E700BF82
:103F0000E81A0020501D0020381C0020B81700209F
:103F100030B404461F2B94BF00250125002814BF90
:103F20002846012028B921606260E260A36030BCAD
:103F300070474FF0FF30FAE710B4C46802682240BF
:103F4000530803F05533D21A02F03333920802F0CB
:103F50003332134403EB131303F00F3303EB032348
:103F600003EB034381EA136303F0010381688B4091
:103F700043EA5403C36004F001005DF8044B70474A
:103F800018B14268C260002070474FF0FF307047A0
:103F90002DE9F0438BB0002405940694079408940F
:103FA0000994544B1A6B42F010021A631A6B02F018
:103FB00010020092009A1A6B42F001021A631A6B07
:103FC00002F001020192019A1A6B42F002021A6396
:103FD0001A6B02F002020292029A1A6B42F0040279
:103FE0001A631A6B02F004020392039A1A6B42F0EE
:103FF00008021A631B6B03F008030493049B3E4FF3
:10400000224607213846FCF77DFD3C4E22460F2113
:104010003046FCF777FDDFF8EC8022464FF406715E
:104020004046FCF76FFD224640213046FCF76AFD12
:10403000224610213046FCF765FD4FF00709CDF808
:104040001490012506950794089405A93846FCF7B5
:104050006BFCCDF8149006950794089405A930469A
:10406000FCF762FC0823059306950794089405A9BC
:104070003046FCF759FC4FF480530593069507949E
:10408000089405A91E48FCF74FFC4FF406730593EE
:1040900006950794089405A94046FCF745FC4FF4A3
:1040A000807305930694079405A94046FCF73CFCF1
:1040B0004FF01008CDF8148006950794089405A9D0
:1040C0003046FCF731FC2A4604213846FCF71AFD3D
:1040D00022460E213046FCF715FD2A462946304679
:1040E000FCF710FD2A4641463046FCF70BFD0BB0AD
:1040F000BDE8F0830038024000100240000002409A
:10410000000802400004024000B583B00A4B1A6B5D
:1041100042F400121A631B6B03F400130193019B1A
:10412000002211461020FCF7CBFA1020FCF7FAFA17
:1041300003B05DF804FB00BF0038024008B50A4830
:104140000A4B03604FF4E133436000238360C36094
:1041500003610C2242614FF440728261C3610362C9
:104160004362FEF7EEFE08BD441F0020004C0040F5
:1041700008B50A480A4B03604FF4E133436000235B
:104180008360C36003610C2242614FF4407282611C
:10419000C36103624362FEF7D4FE08BD781E0020AF
:1041A0000050004008B50848084B03604FF4165310
:1041B000436000238360C36003610C22426183611A
:1041C000C361FEF7BEFE08BD282000200044004069
:1041D00038B50D4C0D4B23600D4B63600025A56079
:1041E0000123E36025616561A561E56125622046E3
:1041F000FCF7EEFD29462046FCF7FCFF2946204649
:10420000FDF726F838BD00BF781D0020005400409F
:104210005B3D300038B50D4D0D4B2B600D4B6B6089
:104220000D4B00249C600122DA601C616C61AC6162
:10423000DC611C622846FCF7CBFD21462846FCF7D2
:10424000D9FF21462846FDF703F838BDC81D0020D8
:1042500000580040FB3D3000781D002008B50E4896
:104260000E4B03604FF482734360002383604FF46E
:10427000E062C260036143614FF4007282612022F8
:10428000C2610362436283620A22C26203634363C0
:10429000FEF73DF808BD00BFC41F002000300140FC
:1042A00008B50D480D4B03604FF482734360002343
:1042B00083604FF44072C260036143618361C361F4
:1042C0000362436283620722C2620363082343637B
:1042D000FEF71DF808BD00BF141E0020003C004082
:1042E00010B5B8B0342200212BA800F02AFD00241C
:1042F00026942794289429942A949022214602A84F
:1043000000F01FFD1F4B1A6C42F080521A641B6CA8
:1043100003F080530093009B1B4A136823F440432F
:1043200043F480431360136803F440430193019BFB
:104330000A232B9301232E9310222F923093319333
:104340002BA8FCF7B1FF0F232693279428944FF452
:10435000A05329934FF480532A93214626A8FDF7B2
:1043600019FA4CF2A06302934FF400730E93149465
:10437000169417941B941C9402A8FDF7E5FA38B024
:1043800010BD00BF003802400070004008B5FCF7C7
:1043900053F9FFF7A5FFFFF7FBFDFFF7B5FEFFF7AA
:1043A000CDFEFFF7E5FEFFF7FDFEFFF711FFFFF77C
:1043B00031FFFFF753FFFFF773FF0C4C204600F06F
:1043C000C9FB234653F8010959799A7941EA022138
:1043D000DB79074A41EA0341FFF7B4FA00F010FC29
:1043E00000F0BAF80248FFF707FDFBE75919002073
:1043F000981C0020704728B110B500240474FFF702
:1044000087FD10BD4FF0FF30704728B108B500237D
:104410000374FFF7B5FD08BD4FF0FF30704700286B
:1044200000F097802DE9F8430446984691460E46E1
:10443000002588E019F80570FF43FFB207F001017D
:10444000237CC91801F0010148BF4942C9B2217457
:104450002046FFF771FD7055C7F34001237CC91852
:1044600001F0010148BF4942C9B221742046FFF75B
:1044700063FD735D43EA40007055C7F38001237C00
:10448000C91801F0010148BF4942C9B22174204650
:10449000FFF752FD735D43EA80007055C7F3C0011A
:1044A000237CC91801F0010148BF4942C9B22174F7
:1044B0002046FFF741FD735D43EAC0007055C7F326
:1044C0000011237CC91801F0010148BF4942C9B25B
:1044D00021742046FFF730FD735D43EA00107055EC
:1044E000C7F34011237CC91801F0010148BF4942BC
:1044F000C9B221742046FFF71FFD735D43EA4010E7
:104500007055C7F38011237CC91801F0010148BF21
:104510004942C9B221742046FFF70EFD735D43EA9C
:1045200080107055217C11EBD71101F0010148BFBB
:104530004942C9B221742046FFF7FEFC735D43EA8D
:10454000C010705501354545FFF474AF0020BDE83B
:10455000F8834FF0FF3070472DE9F04186B0164BDD
:1045600000251D8000225A608DF814508DF81550DA
:10457000124E4FF0C808CDF808800124019405AF11
:10458000009723460B2290213046FCF757FD0A2066
:10459000FCF770F8C0238DF814308DF81550CDF865
:1045A0000880019400972346032290213046FCF7AF
:1045B0006DFC06B0BDE8F08140190020C81D002048
:1045C0002DE9F04387B000258DF814508DF8155073
:1045D0000A20FCF74FF8274F4FF0C808CDF80880A5
:1045E0000124019405AE009623462A4690213846C0
:1045F000FCF724FD05469DF81490CDF80880019441
:1046000000962346224690213846FCF717FD9DF878
:104610001430284310F0FF0F29D143EA0923164A2A
:104620001380DA0B13D107EE903AF8EE677A9FED1C
:10463000137A67EE877A104BC3ED017AFCF714F812
:104640000D4B986093ED010A07B0BDE8F08307EECB
:10465000903AF8EE677A9FED0A7A77EEC77A9FED87
:10466000077A67EE877A044BC3ED017AE6E79FEDA0
:10467000050AE9E7C81D0020401900200000003CA1
:104680000000804700000000014B93ED010A7047D5
:104690004019002082B00A4B1A6C42F080521A6412
:1046A0001A6C02F080520092009A5A6C42F48042D6
:1046B0005A645B6C03F480430193019B02B0704722
:1046C0000038024010B58AB0002305930693079383
:1046D000089309930368264A934204D0254A9342DB
:1046E00023D00AB010BD244C236B43F00203236394
:1046F000236B03F002030193019BC0230593122354
:10470000069301230793032308930423099305A920
:104710001A48FCF709F9236C43F400132364236C53
:1047200003F400130293029BDBE7134C236B43F06B
:1047300002032363236B03F002030393039B4FF4F1
:1047400040630593122306930123079303230893E1
:104750000423099305A90948FCF7E6F8236C43F400
:1047600080032364236C03F480030493049BB8E761
:10477000005400400058004000380240000402404D
:10478000F0B58DB000230793089309930A930B9318
:104790000368454A934204D0444A93423AD00DB04C
:1047A000F0BD0446424B5A6C42F480525A645A6C33
:1047B00002F480520192019A1A6B42F001021A63CC
:1047C0001B6B03F001030293029BE0230793022378
:1047D000089303230A9305230B9307A93548FCF795
:1047E000A3F83548354B03600023436040228260C4
:1047F000C3604FF48062026143618361C3610362FD
:10480000FCF718F818B92C4B63659C63C7E7FFF7F2
:10481000F1FDF8E7264B1A6C42F400421A641A6C58
:1048200002F400420392039A1A6B42F002021A63E6
:104830001A6B02F002020492049A1A6B42F001020F
:104840001A631A6B02F001020592059A1A6B42F084
:1048500004021A631B6B03F004030693069B0423F4
:1048600007930225089503240A9407230B9307A9AD
:104870001348FCF759F84FF40043079308950027B5
:1048800009970A9406260B9607A90A48FCF74CF8E4
:104890004FF440630793089509970A940B9607A96C
:1048A0000848FCF741F87AE700300140003C00403E
:1048B0000038024000000240A8200020886002402A
:1048C000000402400008024030B58FB00023099375
:1048D0000A930B930C930D930368504A934207D0AD
:1048E0004F4A93423BD04F4A93426FD00FB030BDF6
:1048F0004D4B1A6C42F400221A641A6C02F4002226
:104900000192019A1A6B42F002021A631A6B02F0CA
:1049100002020292029A1A6B42F001021A631B6BA6
:1049200003F001030393039B44F20103099302255F
:104930000A9503240C9408230D9309A93B48FBF71F
:10494000F3FF4FF4C05309930A9500230B930C9483
:1049500006230D9309A93648FBF7E6FFC6E7324B5D
:104960001A6C42F480121A641A6C02F480120492D7
:10497000049A1A6B42F002021A631A6B02F00202E6
:104980000592059A1A6B42F004021A631B6B03F03E
:1049900004030693069B4FF44053099302250A959E
:1049A00003240C9408230D9309A92048FBF7BCFFAE
:1049B0004FF4407309930A9500230B930C9407233B
:1049C0000D9309A91B48FBF7AFFF8FE7164B1A6C35
:1049D00042F400321A641A6C02F400320792079A09
:1049E0001A6B42F008021A631B6B03F0080308936A
:1049F000089B6023099302230A9303230C93072344
:104A00000D9309A90C48FBF78FFF002211462620C1
:104A1000FBF756FE2620FBF785FE67E7004C0040BB
:104A200000500040004400400038024000040240B2
:104A30000000024000080240000C02407047FEE700
:104A4000FEE7FEE7FEE770477047704708B5FBF7E3
:104A5000FFFD08BD10B5044C2046FFF757F820466F
:104A6000FDF712FF10BD00BF2820002008B5034647
:104A70000B4A126842B10A4A106803446A469342DC
:104A800006D8074A136008BD054A06491160F2E7D7
:104A900000F022F90C2303604FF0FF30F3E700BF72
:104AA0004C19002010210020054BD3F8882042F437
:104AB0007002C3F888204FF000629A60704700BF10
:104AC00000ED00E000B587B08DF800008DF8011012
:104AD0008DF8022000220492059269460248FDF7F3
:104AE00077FA07B05DF804FB581D002070B586B05A
:104AF00006460D461446002269460748FDF7F2FABD
:104B00009DF8003033709DF801302B709DF8023015
:104B1000237006B070BD00BF581D0020F0B583B0F3
:104B200004460F4616461D46002201A90848FDF717
:104B300005FB9DF805303B709DF8063033709DF8FD
:104B400007302B709DF80430237003B0F0BD00BF18
:104B5000581D002010B50446821D411D0430FFF78A
:104B6000C5FFE31C621CA11C2046FFF7D7FF10BD48
:104B700010B487B01B4B996A002211E01A4880FBE1
:104B80000130CB17C3EBA0031C4603EB8303580093
:104B90000B1A06A901EB820141F8183C21460132AB
:104BA000052AEBDD019B03EB8303580000990844C1
:104BB000039901EB81014A00029B1344059901EB23
:104BC00081014C00049A2244C3EB03139900014471
:104BD0004FF4616303FB0212024BDA6207B05DF827
:104BE000044B70475819002067666666034B012224
:104BF0001A7000225A705A609A6070470C000020A8
:104C000010B50D4C214642F68F70FEF741FBFEF7C2
:104C10005FFD0A20FBF72EFD214642F68F70FEF75E
:104C200037FBFEF771FD214642F68F70FEF730FB31
:104C3000FFF7DCFF10BD00BF88190020B9B170B5C7
:104C40000C46B1F5807F15D8164605460A46014642
:104C50000B48FEF79FFA00280FDD049B32462146E1
:104C60002846FEF71DFC002800DD204670BD6FF0D1
:104C7000020070476FF00100F8E76FF00200F5E7FF
:104C80008C190020DFF834D0002103E00C4B5B5876
:104C9000435004310B480C4B42189A42F6D30B4A4E
:104CA00002E0002342F8043B094B9A42F9D3FFF794
:104CB000FBFE00F017F8FFF769FB704700000820C3
:104CC000388D000800000020F4090020F8090020B9
:104CD00010210020FEE70000014B1868704700BF5C
:104CE0002408002070B50D4E0D4CA41BA410002507
:104CF000A54209D10B4E0C4C03F056FBA41BA4108B
:104D00000025A54205D170BD56F8253098470135DC
:104D1000EEE756F8253098470135F2E7308D000868
:104D2000308D0008308D0008348D000810B5431E0A
:104D30000A44914200D110BD11F8014B03F8014F14
:104D4000F7E702440346934200D1704703F8011B82
:104D5000F9E7F0B52DED028BB0EE408B85B017462C
:104D60000D9D0C9E18EE902A25F02005002AB6BF56
:104D70002D220022B1EE408B462D0C461A7004D035
:104D8000452D00D10134022100E0032103AB019342
:104D900002AB009322463346B0EE480B01F0F0FB25
:104DA000472D01D1FB071ED5462D00EB04030CD186
:104DB0000278302A07D1B5EE408BF1EE10FA1CBF15
:104DC000C4F10104346032681344B5EE408BF1EE57
:104DD00010FA07D03021039A9A4204D2541C03944B
:104DE0001170F8E70393039B0E9A1B1A136005B02A
:104DF000BDEC028BF0BDF7B500290446BABF4942AD
:104E00002D232B23092904F8022B437020DD0DF1FB
:104E100007031F460A2691FBF6F506FB15113031F4
:104E2000092D03F8011C03F1FF32294609DC30315A
:104E3000023B02F8011CBB42224604D3101A03B005
:104E4000F0BD1346E7E713F8012B04F8012BF2E756
:104E5000302319448370021DC170EFE70000000089
:104E60002DE9F04F8DB00C4616461F46DDF85880F0
:104E7000054602F0FDFBD0F800B05846FBF760FB9A
:104E800000230A93D8F800300590073323F0070376
:104E900003F1080194F818902268C8F80010D3E9CB
:104EA0000001C4E912019FEDA27B94ED120BB0EE5C
:104EB000C06BB4EE476BF1EE10FA24DDB5EEC00B1B
:104EC000F1EE10FA02D52D2384F843309A499B4B1A
:104ED000B9F1470F8CBF8846984622F0040203239D
:104EE000236122604FF0000A009733460BAA214647
:104EF000284600F0E1F9013040F089804FF0FF30A2
:104F00000DB0BDE8F08FB4EE400BF1EE10FA02D711
:104F10008B498C4BDCE761684B1C42F480620AAB26
:104F200009A83BD1062161604FF0000CCDE9023C9D
:104F3000CDE900090DF12303226061682846FFF7DF
:104F400008FF09F0DF03472B804609D1099BD81CD5
:104F500002DB6268934247DDA9F102095FFA89F931
:104F6000B9F1650F099924D801394A4604F1500076
:104F70000991FFF740FF0A9A1318012A824623611C
:104F800002DC2268D10701D5013323619DF823306B
:104F9000002BA9D02D2384F84330A5E7B9F1670F82
:104FA00000F07881B9F1470FBED10029BCD10121B1
:104FB000B9E7B9F1660F19D1002963680CDD2161E9
:104FC00013B92268D20702D501330B442361099B30
:104FD000A3654FF0000AD9E713B92268D00701D5BD
:104FE0000233F3E70123F1E74FF06709DDE9093206
:104FF000934205DB22682361D107E8D50133E5E759
:10500000002BD4BFC3F1020301231344DEE723685E
:105010005A0507D42369424631462846B84701302D
:105020002AD16BE7B9F1650F40F2DE8094ED127B77
:10503000B5EE407BF1EE10FA33D10123424A3146FE
:105040002846B84701303FF459AFDDE909239A42B9
:1050500002DB2368D8070FD5059B5A463146284600
:10506000B84701303FF44AAF4FF0000804F11A0985
:105070000A9B013B434509DC23689B0700F105813E
:10508000E0680B9B9842B8BF184639E701234A46AF
:1050900031462846B84701303FF430AF08F10108E7
:1050A000E6E7099B002B2BDC0123274A31462846E3
:1050B000B84701303FF422AF099B23B90A9B13B9CB
:1050C0002368D907D8D5059B5A4631462846B847A4
:1050D00001303FF413AF4FF0000904F11A0A099BA5
:1050E0005B424B4501DC0A9B95E701235246314662
:1050F0002846B84701303FF401AF09F10109EEE756
:105100000A9AA36D9A42A8BF1A46002A914607DD63
:105110001346314642462846B84701303FF4EEAECA
:1051200004F11A034FF0000A29EAE979079317E01E
:10513000FFFFFFFFFFFFEF7F7C8A0008788A0008EF
:10514000848A0008808A0008888A00080123079A58
:1051500031462846B84701303FF4D0AE0AF1010A83
:10516000A36D0693A3EB09035345EFDC069B98441C
:10517000DDE909239A4215DB2368DA0712D40A9B7A
:10518000069A09999A1AA3EB010A9245A8BF92467A
:10519000BAF1000F0EDC4FF000082AEAEA7A04F1B7
:1051A0001A0919E0059B5A4631462846B84701308E
:1051B000E5D1A3E65346424631462846B84701307A
:1051C000E9D19BE601234A4631462846B8470130DB
:1051D0003FF494AE08F10108DDE909239B1AA3EB23
:1051E0000A034345EEDC47E70A9A012A01DCDB07A4
:1051F00039D50123424631462846B84701303FF4AD
:105200007DAE059B5A4631462846B847013008F125
:1052100001083FF473AE94ED127B0A9BB5EE407B20
:10522000F1EE10FA03F1FF3318D04246314628461A
:10523000B84701300ED161E601234A46314628467F
:10524000B84701303FF45AAE08F101080A9B013B10
:105250004345F1DC534604F15002DDE64FF000080F
:1052600004F11A09F2E70123DFE701234A46314638
:105270002846B84701303FF441AE08F10108E36821
:105280000B9A9B1A4345F0DCFAE64FF0000804F154
:105290001909F4E700293FF48AAE4FF0000CCDE97C
:1052A000023CCDE9000922600DF123032846FFF7F7
:1052B00050FD80464AE600BF2DE9F04791461F4663
:1052C0008A680B69DDF820809342B8BF1346C9F89D
:1052D000003091F8432006460C4612B10133C9F85C
:1052E00000302368990642BFD9F800300233C9F86C
:1052F0000030256815F0060507D104F1190AE368A6
:10530000D9F800209B1AAB4228DC94F8433022687D
:10531000003318BF012392062DD404F1430239460D
:105320003046C047013020D02368E568D9F8002016
:1053300003F00603042B08BFAD1AA36822690CBF53
:1053400025EAE57500259342C4BF9B1AED184FF07E
:1053500000091A344D451AD1002008E001235246B5
:1053600039463046C047013003D14FF0FF30BDE829
:10537000F0870135C3E7E1185A1C302081F843005B
:10538000224494F8451082F843100233C5E7012304
:10539000224639463046C0470130E6D009F10109BE
:1053A000D8E700002DE9F04301F1430C0C46097EDB
:1053B00085B06E291746064698460C9A00F0B380D1
:1053C00022D8632936D00AD8002900F0B98058299C
:1053D00000F0838004F1420584F8421032E0642931
:1053E00001D06929F6D120681368050603F104018C
:1053F0002AD51B681160002B03DA2D225B4284F84A
:1054000043206F480A2239E0732900F09D8008D8B4
:105410006F2920D07029DDD1236843F02003236059
:1054200003E0752917D07829D4D1782384F8453042
:10543000644855E01368191D1B68116004F14205AA
:1054400084F8423001238CE01B68116010F0400F9B
:1054500018BF1BB2CFE713682568181D1060280617
:1054600001D51B6802E06806FBD51B8854486F29EC
:1054700014BF0A220822002184F843106568A56041
:10548000002DC0F29580216821F004012160002BDD
:105490003DD1002D40F08E806546082A0BD123684F
:1054A000DB0708D5236962689A42DEBF302305F81E
:1054B000013C05F1FF35ACEB05032361CDF800801D
:1054C0003B4603AA21463046FFF7F6FE01304DD198
:1054D0004FF0FF3005B0BDE8F083394884F845103F
:1054E000136821681D1D1B6815600A060BD5CA07C5
:1054F00044BF41F0200121601BB9226822F0200244
:1055000022601022B7E74D0648BF9BB2EFE7654621
:10551000B3FBF2F102FB1133C35C05F8013D0B460E
:105520000029F5D1B9E7136825686169181D106075
:1055300028061B6801D5196002E06A06FBD51980B0
:10554000002323616546B9E71368191D11601D68C2
:10555000626800212846FAF7FBFF08B1401B606033
:1055600063682361002384F84330A7E723692A4650
:1055700039463046C0470130AAD023689B0713D470
:10558000E068039B9842B8BF1846A3E701234A4648
:1055900039463046C04701309AD00135E368039A56
:1055A0009B1AAB42F2DCEBE7002504F11909F5E7A1
:1055B000002BACD1037884F8423004F142056CE74B
:1055C0008A8A00089B8A00080CB430B5174B0C1E61
:1055D0009DB01D6808DA8B232B604FF0FF301DB0A3
:1055E000BDE8304002B070474FF40273ADF814309C
:1055F00014BF04F1FF332346049307934FF6FF7360
:1056000002900690ADF81630209A21AB02A92846E8
:10561000019302F065FD431CBCBF8B232B60002C63
:10562000DDD0029B00221A70D9E700BF24080020B9
:1056300010B503461A785C1C3AB9013B11F8012BEE
:1056400003F8012F002AF9D110BD2346F2E730B547
:1056500003461C785D1C44B912F1FF3204D311F8E3
:10566000014B03F8014B14B930BD2B46F1E7002A7A
:10567000F2D11A70F0E710B56AB10139841810F848
:10568000013B11F8012F934203D1A04201D0002B1E
:10569000F5D1981A10BD1046FCE770B501390446E3
:1056A00002B970BD234611F8015F03F8015B561E75
:1056B0002DB91444A342F4D003F8015BFAE71C4669
:1056C0003246EDE710B5034601448B4202D01A780A
:1056D0005C1C0AB9181A10BD2346F6E770B50446DB
:1056E0000D46164645EC104B02F0B6FA7EB1C5F3F6
:1056F0000A53C3F16B03002B09DD1B0503F17F5136
:10570000002001F5401141EC170B20EE070B70BD96
:105710002DE9F04F2DED0C8B98469DB000230446EB
:1057200040460E461492189301F09FFF8146006890
:10573000FAF706FF4FF0000A07464FF0000B1796E6
:10574000179B1A780D2A34D8092A38D2002A40D05B
:1057500000230D93179D2B78302B40F0B3806B788E
:10576000582B01D0782B69D10D9B019318AB009376
:10577000CDF8088019AB8F4A17A9204601F09BFC91
:1057800010F00706074605D0062E2CD10135002360
:1057900017950D93149B002B40F05E850D9BEBB18C
:1057A0004BEC17ABB1EE470B1DB0BDEC0C8BBDE85D
:1057B000F08F2B2A15D02D2A04D0202AC8D10133EE
:1057C0001793BDE701220D925A1C17925B78002BAC
:1057D000C0D1149B1796002B40F03C854BEC10ABCE
:1057E000E2E70022EFE7189A3AB135211AA802F051
:1057F0002CFB1899204601F097FF013E042E06D895
:10580000DFE806F00A0314170A00DDE91AAB3B07CC
:10581000C0D54BF0004BBDE7DDE91AA3199A23F47C
:10582000801302F2334243EA025BF0E7DFF888B10B
:10583000EDE76FF0004B4FF0FF3AE8E7179B5A1C7B
:1058400017925B78302BF9D0002BA3D001230A9359
:10585000179B0C930023069308931D460A22179862
:1058600090F80080A8F13003D9B209292CD93A4622
:10587000D9F80010FFF7FFFE002835D0002042467F
:105880002B4601460490652A01D0452A17D123B939
:1058900010B90A9B002B9CD00023179E721C1792F4
:1058A00072782B2A00F082802D2A79D04FF0000EDA
:1058B000A2F1300CBCF1090F40F2868017964FF030
:1058C0000008A8E00023C2E7082DD5BF0899069973
:1058D00002FB013302FB013300F10100D4BF089346
:1058E000069301351790BAE7179BDA191792DA5D1C
:1058F000002D38D001462B46A2F13007092F13D9CD
:1059000001270497BFE7179B5A1C17925A7801305A
:10591000302AF8D0A2F13103082B00F2A284179BA1
:105920000C93014600200346B2F1300800F1010754
:1059300013D0394400EB030E1F464FF00A0CBE454E
:1059400013D11F18082F03F1010303441DDC089A2B
:105950000A2000FB028208920027179A501C179019
:1059600052783846C8E72846D2E7082F07F10107E2
:1059700004DC089A0CFB02F20892E0E7102FDEBF6D
:10598000069A0CFB02F20692D9E7102BDFBF069AAB
:105990000A2000FB02820692DEE70123049377E7E8
:1059A0004FF0010EB21C1792B27881E74FF0000E53
:1059B000F8E700BFAC8A00080000F07F179A02F1F8
:1059C000010CCDF85CC05278302AF7D0A2F1310C2E
:1059D000BCF1080F3FF673AFA2F13008179A0E9290
:1059E000179A02F1010CCDF85CC05278A2F130098F
:1059F000B9F1090F39D90E9FACEB070CBCF1080FB8
:105A000044F61F6C37DCE045A8BFE046BEF1000F4E
:105A100001D0C8F10008002B51D100287FF4BAAEA4
:105A20000A9B002B7FF4B6AE049B002B7FF4D1AE13
:105A30004E2A27D021DC492A7FF4CBAE9A4917A8F9
:105A400001F06CFD00283FF4C4AE179B9749013B61
:105A500017A8179301F062FD10B9179B0133179334
:105A6000DFF860B24FF0000A94E60A2707FB082827
:105A7000A8F13008B4E7E046C8E7692ADED06E2A0C
:105A80007FF4A7AE8A4917A801F048FD00283FF42B
:105A9000A0AE179B1B78282B0ED11AAA854917A8F0
:105AA00001F050FD052807D11B9BDDF868A043F0ED
:105AB000FF4B4BF4E00B6DE6DFF80CB2D2E7DDED07
:105AC000087AB8EE677BA8EB0102002D08BF1D46DF
:105AD000102B04928DED0A7B1A46A8BF1022092BC9
